:020000041000EA
:1000000000B5324B212058609868022188439860DF
:10001000D860186158612E4B002199600221596106
:100020000121F02299502B49196001219960352056
:1000300000F044F80222904214D00621196600F024
:1000400034F8196E01211966002018661A6600F04E
:100050002CF8196E196E196E052000F02FF8012189
:100060000842F9D1002199601B49196000215960AB
:100070001A491B48016001219960EB211966A021F2
:10008000196600F012F800219960164914480160C1
:100090000121996001BC002800D000471248134993
:1000A000086003C880F30888084703B5996A0420EC
:1000B0000142FBD001200142F8D103BD02B5186610
:1000C0001866FFF7F2FF186E186E02BD00000240BE
:1000D000000000180000070000035F00212200005C
:1000E000F4000018222000A00001001008ED00E03C
:1000F00000000000000000000000000074B24E7A12
:1001000000200420F7010010C3010010C5010010F9
:10011000C1010010C1010010C1010010C101001097
:10012000C1010010C1010010C1010010C701001081
:10013000C1010010C1010010C9010010CB01001065
:10014000CD010010CD010010CD010010CD01001037
:10015000CD010010CD010010CD010010CD01001027
:10016000CD010010CD010010CD010010CD01001017
:10017000CD010010CD010010CD010010CD01001007
:10018000CD010010CD010010CD010010CD010010F7
:10019000CD010010CD010010CD010010CD010010E7
:1001A000CD010010CD010010CD010010CD010010D7
:1001B000CD010010CD010010CD010010CD010010C7
:1001C00000BE00BE00BE00BE00BE00BEEFF3058054
:1001D000103800BEF2EB88716048021084480210AB
:1001E0003402001090A31AE700201F49086006C8D7
:1001F00081F3088810471D48006800282FD10DA4FE
:100200000ECC002902D000F012F8F9E71849194A7B
:10021000002000E001C19142FCD1174988471749ED
:1002200088471749884700BEFDE701C901C29A42C5
:10023000FBD3704784480210C000002068100020E3
:100240002C58021000000420000004202C5802103A
:10025000001004200010042000000000704709482E
:1002600016F086FF0047000008ED00E0000000D017
:1002700068100020F4DA01205D590110DD0D011035
:10028000855A01105756000006005250ABB3605318
:10029000F038021006005250861C0302003902108A
:1002A000060052505422A29D0C39021005005250F3
:1002B000DE65F4682C580210F8B5C0460448054BBA
:1002C00010B5834203D0044B002B00D0984710BDDB
:1002D0006810002068100020000000000648074950
:1002E000091A8B10C90FC91810B5491003D0044B57
:1002F000002B00D0984710BD681000206810002027
:100300000000000010B5074C2378002B09D1FFF73F
:10031000D5FF054B002B02D0044800E000BF0123AD
:10032000237010BD9018002000000000001602107D
:10033000054B10B5002B03D00449054800E000BF71
:10034000FFF7CCFF10BDC04600000000941800204D
:1003500000160210F8B54546DE4657464E46E0B553
:100360001500092A67DD632A00DCBFE0FA239B0041
:100370009A4200DAB2E05F4B9A4200DCB8E05E4B92
:100380009A4200DCAEE05D4B9A4200DCA8E05C4A99
:100390000823954200DCA7E05A4A4E0117685A4AE2
:1003A00036181278013E9346584AF618B618584A3D
:1003B0004C0094466418E40124186444E418554B36
:1003C000E41830239A46303399463033984600E09B
:1003D00005000A21280016F0F9FE33783031C9B241
:1003E0008B421AD052463170C90059447B5C79184F
:1003F00023704B78A3544A468B78A3544246CB785B
:10040000A354C0220B79A3544B793032A3548B7977
:100410003032A354CB793032A3540A21280016F08D
:10042000D5FE013E013C092DD2DC3CBC90469946EC
:10043000A246AB46F8BD002A4BD1344A4B011B18EB
:10044000D45C302CF1D03024D4542E4B4C001A689C
:100450002D4B64181B78E401D3181A00813224183C
:10046000FF322C4815782C4A0019821815701A0092
:100470008232FF321178294A821811701A008332B1
:10048000FF321178264A821811701A008432FF3226
:100490001178244A821811701A008532FF321178BF
:1004A000214A821811701A008632FF3211781F4AD1
:1004B000821811701A008732FF3211781C4A883373
:1004C000821811701B4AFF3394461B7860440370F6
:1004D000ABE70123002D00DD5EE7A6E703235BE722
:1004E000062359E7052357E7013B55E7022353E766
:1004F000042351E70F2700009F8601003F420F00B1
:100500007F969800BCD801205D250020B8250120E9
:10051000540A0000B82E0120550A0000850A000088
:10052000B50A0000E50A0000150B0000450B0000AD
:10053000750B0000A50B000010B50F2A4AD8D34B4D
:1005400092009B589F46D24A4B011B18D45C442C06
:1005500040D04424D4544B005918CE4BC9011A68DA
:10056000CD4B08181B78CD49D318882292009A18D1
:100570001478CB4A081882181470CA4A9A1811784D
:10058000C94A82181170C94A9A181178C84A821843
:100590001170C84A9A181178C74A821811708922B6
:1005A00092009A181178C54A82181170C44A9A1894
:1005B0001178C44A82181170C34A9A181178C34A34
:1005C00082181170C24A94466344C24A1B7894460A
:1005D0006044037010BDAE4A4B011B18D45C452C1F
:1005E000F8D04524D4544B005918AA4BC9011A68B5
:1005F000A94B08181B78A949D3188A2292009A1887
:100600001478A74A081882181470B34A9A181178F7
:10061000A54A82181170B14A9A181178A44A821812
:100620001170AF4A9A181178A34A821811708B2260
:1006300092009A181178A14A82181170A94A9A1842
:100640001178A04A82181170A74A9A1811789F4A07
:1006500082181170A54AB6E78D4A4B011B18D45C6D
:10066000462CB7D04624D4544B005918894BC901A5
:100670001A68894B08181B788849D3188C22920075
:100680009A181478864A081882181470984A9A188A
:100690001178854A82181170964A9A181178844AFE
:1006A00082181170944A9A181178834A821811702E
:1006B0008D2292009A181178804A821811708F4A00
:1006C0009A1811787F4A821811708D4A9A181178F9
:1006D0007E4A821811708B4A75E76D4A4B011B18D0
:1006E000D45C302C00D175E73024D4544B00591819
:1006F000684BC9011A68684B08181B786749D318FA
:100700001A008132FF321478654A08188218147072
:100710001A008232FF321178634A821811701A006F
:100720008332FF321178624A821811701A008432C3
:10073000FF321178604A821811701A008532FF3238
:1007400011785E4A821811701A008632FF321178D1
:100750005C4A821811701A008732FF3211785B4AA6
:10076000883382181170FF332FE7494A4B011B1859
:10077000D45C312C00D12DE73124D4544B005918CE
:10078000444BC9011A68444B08181B784349D318D5
:100790001A008932FF321478414A081882181470FE
:1007A0001A008A32FF3211783F4A821811701A00FB
:1007B0008B32FF3211783E4A821811701A008C3247
:1007C000FF3211783C4A821811701A008D32FF32C4
:1007D00011783A4A821811701A008E32FF3211785D
:1007E000384A821811701A008F32FF321178374A56
:1007F000903382181170FF33E7E6254A4B011B182E
:10080000D45C322C00D1E5E63224D4544B00591884
:10081000204BC9011A68204B08181B781F49D318B0
:100820001A009132FF3214781D4A08188218147089
:100830001A009232FF3211781B4A821811701A0086
:100840009332FF3211781A4A821811701A009432CA
:10085000FF321178184A821811701A009532FF324F
:100860001178164A821811701A009632FF321178E8
:10087000144A821811701A009732FF321178134A05
:10088000983382181170FF339FE6C046001602109D
:10089000B8250120BCD801205D250020B82E0120FC
:1008A000550A000021020000850A00002202000013
:1008B000B50A000023020000E50A0000150B000045
:1008C00025020000450B000026020000750B000009
:1008D00027020000A50B0000290200002A020000E8
:1008E0002B0200002D0200002E0200002F0200004B
:1008F0003102000032020000330200003502000025
:100900003602000037020000D74A4B011B18D45CA6
:10091000332C00D15EE63324D4544B005918D34B0A
:10092000C9011A68D24B08181B78D249D3181A008B
:100930009932FF321478D04A0818821814701A00BD
:100940009A32FF321178CD4A821811701A009B3208
:10095000FF321178CA4A821811701A009C32FF3295
:100960001178C84A821811701A009D32FF3211782E
:10097000C54A821811701A009E32FF321178C34A9C
:10098000821811701A009F32FF321178C04AA033CA
:1009900082181170FF3318E6B34A4B011B18D45C60
:1009A000342C00D116E63424D4544B005918AF4BE4
:1009B000C9011A68AE4B08181B78AE49D3181A0043
:1009C000A132FF321478AC4A0818821814701A0049
:1009D000A232FF321178A94A821811701A00A3328C
:1009E000FF321178A64A821811701A00A432FF3221
:1009F0001178A44A821811701A00A532FF321178BA
:100A0000A14A821811701A00A632FF3211789F4A4B
:100A1000821811701A00A732FF3211789C4AA8334D
:100A200082181170FF33D0E58F4A4B011B18D45C3C
:100A3000352C00D1CEE53524D4544B0059188B4BBE
:100A4000C9011A688A4B08181B788A49D3181A00FA
:100A5000A932FF321478884A0818821814701A00D4
:100A6000AA32FF321178854A821811701A00AB320F
:100A7000FF321178824A821811701A00AC32FF32AC
:100A80001178804A821811701A00AD32FF32117845
:100A90007D4A821811701A00AE32FF3211787B4AFB
:100AA000821811701A00AF32FF321178784AB033D1
:100AB00082181170FF3388E56B4A4B011B18D45C18
:100AC000362C00D186E53624D4544B005918674B98
:100AD000C9011A68664B08181B786649D3181A00B2
:100AE000B132FF321478644A0818821814701A0060
:100AF000B232FF321178614A821811701A00B33293
:100B0000FF3211785E4A821811701A00B432FF3237
:100B100011785C4A821811701A00B532FF321178D0
:100B2000594A821811701A00B632FF321178574AAA
:100B3000821811701A00B732FF321178544AB83354
:100B400082181170FF3340E5474A4B011B18D45CF3
:100B5000372C00D13EE53724D4544B005918434B71
:100B6000C9011A68424B08181B784249D3181A0069
:100B7000B932FF321478404A0818821814701A00EB
:100B8000BA32FF3211783D4A821811701A00BB3216
:100B9000FF3211783A4A821811701A00BC32FF32C3
:100BA0001178384A821811701A00BD32FF3211785C
:100BB000354A821811701A00BE32FF321178334A5A
:100BC000821811701A00BF32FF321178304AC033D8
:100BD00082181170FF33F8E4234A4B011B18D45CD0
:100BE000382C00D1F6E43824D4544B0059181F4B4C
:100BF000C9011A681E4B08181B781E49D3181A0021
:100C0000C132FF3214781C4A0818821814701A0076
:100C1000C232FF321178194A821811701A00C33299
:100C2000FF321178164A821811701A00C432FF324E
:100C30001178144A821811701A00C532FF321178E7
:100C4000114A821811701A00C632FF3211780F4A09
:100C5000821811701A00C732FF3211780C4AC8335B
:100C600082181170FF33B0E4B8250120BCD80120F0
:100C70005D250020B82E0120550A0000850A0000DD
:100C8000B50A0000E50A0000150B0000450B000046
:100C9000750B0000894A4B011B18D45C392C00D11C
:100CA00098E43924D4544B005918854BC9011A686B
:100CB000844B08181B788449D3181A00C932FF32B4
:100CC0001478824A0818821814701A00CA32FF3247
:100CD00011787F4A821811701A00CB32FF321178D6
:100CE0007C4A821811701A00CC32FF3211787A4A8D
:100CF000821811701A00CD32FF321178774A8218AB
:100D000011701A00CE32FF321178754A82181170B4
:100D10001A00CF32FF321178724AD0338218117024
:100D2000FF3352E4654A4B011B18D45C412C00D1BF
:100D300050E44124D4544B005918614BC9011A683E
:100D4000604B08181B786049D318822292009A18C9
:100D500014785E4A081882181470634A9A18117839
:100D60005B4A82181170614A9A181178594A8218A0
:100D700011705F4A9A181178574A821811708322AD
:100D800092009A181178554A82181170594A9A1887
:100D90001178534A82181170574A9A181178514A9B
:100DA00082181170554AFFF70EFC444A4B011B187C
:100DB000D45C422C01D1FFF70DFC4224D4544B00EB
:100DC00059183F4BC9011A683E4B08181B783E4919
:100DD000D318842292009A1814783C4A0818821872
:100DE0001470474A9A181178394A82181170454A86
:100DF0009A181178374A82181170434A9A18117854
:100E0000354A82181170852292009A181178334A57
:100E1000821811703D4A9A181178314A821811705F
:100E20003B4A9A1811782F4A82181170394AFFF7F5
:100E3000CAFB224A4B011B18D45C432C01D1FFF79B
:100E4000C9FB4324D4544B0059181D4BC9011A68DF
:100E50001C4B08181B781C49D318862292009A183C
:100E600014781A4A0818821814702B4A9A181178A4
:100E7000174A82181170294A9A181178154A82184F
:100E80001170274A9A181178134A82181170872214
:100E900092009A181178114A82181170214A9A18F2
:100EA00011780F4A821811701F4A9A1811780D4A4A
:100EB000821811701D4AFFF786FBC046B825012035
:100EC000BCD801205D250020B82E0120550A000065
:100ED000850A0000B50A0000E50A0000150B0000B5
:100EE000450B0000750B0000090200000A0200001B
:100EF0000B0200000D0200000E0200000F020000B5
:100F0000110200001202000013020000150200008E
:100F10001602000017020000190200001A02000069
:100F20001B0200001D0200001E0200001F02000044
:100F300070B5794D36212E78002032110F24FFF73D
:100F4000FBFA3200362101202240FFF7F5FA6E78D5
:100F5000362132110220FFF7EFFA3200362103204A
:100F60002240FFF7E9FAAE78362132110420FFF76C
:100F7000E3FA3200362105202240FFF7DDFAEE7851
:100F8000362132110620FFF7D7FA3200362107202A
:100F90002240FFF7D1FA2E79362132110820FFF7CF
:100FA000CBFA3200362109202240FFF7C5FA6E79CC
:100FB000362132110A20FFF7BFFA320036210B200A
:100FC0002240FFF7B9FAAE7936210C203211FFF733
:100FD000B3FA320036210D202240FFF7ADFAED7949
:100FE00036210E202A11FFF7A7FA220036210F2002
:100FF0002A40FFF7A1FA494B1B78002B00D087E06D
:10100000BE255F20AD00DA21454AC900545C844208
:101010001FD0444B50541968434B44481B78444CF0
:101020005B19CD5CCB1805555C78424944549C78DB
:1010300041494454DC78414944541C794049445462
:101040005C79404944549C793F494454D9793F4B99
:10105000C1543F4B1B78002B56D08C2523206D00AC
:101060003C49545C84421FD02E4B505419682E4B7F
:101070002E481B78384C5B19CD5CCB1805555C7835
:10108000364944549C7836494454DC7835494454B4
:101090001C79354944545C79344944549C79344929
:1010A0004454D979334BC154334B1B78002B27D090
:1010B0008C2523206D003149545C84421FD0194B8C
:1010C00050541A68184B19491B782D485B19D45C89
:1010D000D3180C5458782B4A885498782A4A885444
:1010E000D8782A4A88541879294A88545879294A3C
:1010F00088549879284A8854DA79284BCA5470BDA4
:10110000BE255F20AD00D6E7BE255F20AD00A7E776
:101110008C2523206D0076E7E4D801205625002099
:10112000B8250120BCD801205D250020B82E012063
:10113000655B0000955B0000C55B0000F55B00008F
:10114000255C0000555C0000855C0000B55C00007B
:1011500059250020D1060000665B0000965B000068
:10116000C65B0000F65B0000265C0000565C0000D9
:10117000865C0000B65C00005A250020D206000004
:10118000675B0000975B0000C75B0000F75B000037
:10119000275C0000575C0000875C0000B75C000023
:1011A00030B53C4B1B78002B65D08023DB01984287
:1011B00061D2394B9C46394B60441B7880B2002B7E
:1011C00006D0374B984203D9364B9C46604480B2D8
:1011D000354A364B94461B686344834254DA344B99
:1011E000C022195480231B01C3189BB29200934262
:1011F0004AD2304B9C461F236044C417E50E421967
:101200001A40234018184011521B2B4C43019B18C5
:10121000E55C8D4238D0E15443001818C0018218B3
:101220002648274B0078C900091826481B688018F3
:10123000254A5C5C821814705918244B4A78C318EC
:101240001A70234B8A78C3181A70224BCA78C318B5
:101250001A70214B0A79C3181A70204B4A79C318A7
:101260001A701F4B8A79C3181A701E4ACB7994469C
:101270006044037008E0094B1B78002B05D10A4B32
:101280009842A5D80A4B195430BD054B9842F6D95F
:101290009AE7C0468505002000C0FFFF84050020B6
:1012A000FFFB000000FCFFFFFFBF000084240020C4
:1012B000A82500200008FFFFB82501205D2500209B
:1012C000BCD80120B82E0120550A0000850A000074
:1012D000B50A0000E50A0000150B0000450B0000F0
:1012E000750B0000A50B0000F0B5C64600B50C005C
:1012F0004549050009781E0000293DD1022A3FD04A
:10130000022A16D8002A5ED0404F3B78002B67D0C7
:101310003F49F6000A783F4B5000A4192D020132D4
:101320006419D2B2C452132A4AD80A7004BC904637
:10133000F0BD032AECD1384B98461B78002B42D1E4
:10134000324F3B78002B59D0002309220421FB2087
:10135000FFF7CAFF012309220421FB20FFF7C4FF86
:10136000012309220021FE20FFF7BEFF0123424690
:10137000137000233B70CBE7022ADCD0032ABFD1D5
:10138000254B98461B78002B1DD0204F3B78002B17
:101390002ED0002309220421FB20FFF7A5FF012303
:1013A00009220421FB20FFF79FFF012309220021CE
:1013B000FE20FFF799FF002342463B701370A7E71A
:1013C00000230B70B2E7114F3B78002BA0D0012314
:1013D00009220021FE20FFF787FF00233B7097E7DB
:1013E00009220021FE20FFF77FFF01233B708FE7DA
:1013F00009220021FE20FFF777FFCAE7092200211A
:10140000FE20FFF771FF9FE7562500205925002099
:1014100057250020782500205A250020F8B5DE4603
:1014200057464E464546E0B5D54B0220DA790421B1
:1014300090461600012744461040114008223E40C5
:10144000B3462240240700D0AEE0CE4A1978107887
:10145000CD4D04004C402C700024884205D08842B9
:1014600064416442BC4301341170597850780E00D5
:1014700046406E70814203D000D87FE30134517042
:10148000997890780E004640AE70814204D001D821
:1014900000F00EFC01349170D078D97806004E40EF
:1014A000EE70884204D001D300F006FC0134D17004
:1014B0001079197906004E402E71884204D001D36C
:1014C00000F0FEFB0134117151795B79080058403E
:1014D0006871994200D0DEE0002C5DD0002300202E
:1014E0006E78297832068018594100232A79AE781F
:1014F00012184B410021300412184B410027E978A3
:101500000E02B6185F4180235B039E4201D101F0B9
:1015100014F8002F00D01DE19E4200D91AE180236B
:10152000DB009E4201D101F0F4FB00D8CCE3802324
:101530005B029E4201D101F07AFE00D85FE1802378
:10154000DB029E4201D100F025FC80231B039E425A
:1015500000D0D2E1002F00D0CFE143465B0601D49A
:1015600001F0B6FB894EE50F3378002B01D001F076
:101570006CFB8749874A8C46137887495800ED00F1
:1015800001336544DBB24552132B01D901F058FBFE
:1015900038251370002C00DC002528003CBC904648
:1015A0009946A246AB46F8BD002A79D0002900D062
:1015B00004E3DA78002801D000F04AFD002E01D0C3
:1015C00000F0FAFE40211F780A43380094466D4A25
:1015D0006D4D147860402870A74201D001F016F9D3
:1015E00000244027614658783943D9708C46010061
:1015F000577879406970B84201D101F0C4F8B84217
:1016000001D801F0B0F9013459465070002901D1D8
:1016100001F0B9F840271978987839431970614674
:101620003943C9B2D9708C46010097787940A970C6
:10163000B84201D001F0B3F8402019780143197085
:1016400061460143C9B20F00D970D0784740EF70AE
:10165000814201D001F0B8F840201F7801430743D0
:101660001879C9B206001F70D97017797E402E71A3
:10167000B84201D001F0BEF8402618783043187007
:1016800040200143D9705B79517918004840687156
:101690008B4200D120E78B4259D9013453711BE7AB
:1016A000002900D000E2002801D000F06BFC19787E
:1016B000002E01D000F0CAFE324A334D14782000CB
:1016C000484028708C4201D001F050F8002459782D
:1016D00050780F0047406F70814201D101F004F84B
:1016E000884201D301F054F9013451705946002960
:1016F00001D100F0F9FF4020197801431970997861
:1017000090780F004740AF70814201D000F0F3FFA6
:101710004020197801431970D978D0780F004740DC
:10172000EF70814201D000F0F7FF402019780143AB
:101730001970197910790F0047402F71814201D03B
:1017400000F0FDFF4020197801431970BCE6013C10
:101750005371C1E68023DB059E4201D101F0D9F827
:10176000002F01D19E4219D9002E00D159E3082F34
:1017700001D801F045FB002E00D175E1002509E7F5
:10178000E4D80120CCD80120FC9F0120592500205D
:1017900002EFFFFF57250020782500208023DB047F
:1017A0009E4201D101F014FC53D980235B059E4277
:1017B00001D101F069FC80239B059E4275D1002F69
:1017C00073D143465B0601D400F0D7FEED4EE50F22
:1017D0003378002B01D001F068F9EB49EB4A8C46D5
:1017E0001378EB495800ED0001336544DBB24552F4
:1017F000132B01D901F054F932251370CAE6802366
:101800009B019E4200D1EFE200D89EE08023DB01E5
:101810009E4201D001F099F8002F01D001F095F817
:10182000D84EE50F3378002B01D100F0C6FED94920
:10183000D64A8C461378D6495800ED0001336544EA
:10184000DBB24552132B01D901F0AEF90425137018
:10185000A0E680235B049E4201D101F08CFA00D8FF
:10186000BDE0802300259B049E4200D092E64346C3
:101870005B0601D401F07CFBC24EE50F3378002BF0
:1018800001D101F0D4F9C449C04A8C461378C0494B
:101890005800ED0001336544DBB24552132B01D9EA
:1018A00001F0C0F92825137074E680231B059E42C1
:1018B00001D001F027FD002F01D001F023FD4346A8
:1018C0005B0601D401F0E3F9AE4EE50F3378002B4F
:1018D00001D001F052F9B149AC4A8C461378AC49B9
:1018E0005800ED0001336544DBB24552132B01D99A
:1018F00001F03EF9392513704CE680239B029E428D
:1019000001D001F0F1F9002F01D001F0EDF94346CB
:101910005B0601D401F0EBF99A4EE50F3378002B0A
:1019200001D101F089F89D49984A8C46137898496D
:101930005800ED0001336544DBB24552132B01D949
:1019400001F075F82925137024E680231B019E42BF
:101950001DD143465B0601D401F045FA894EE50FDF
:101960003378002B01D001F053F98D49874A8C461A
:10197000137887495800ED0001336544DBB24552C6
:10198000132B01D901F03FF93725137002E68023AC
:101990005B019E4201D001F08FF9002F01D001F0D0
:1019A0008BF943465B0601D401F0C4FA754EE50F8E
:1019B0003378002B01D101F05BF87A49734A8C46E9
:1019C000137873495800ED0001336544DBB245528A
:1019D000132B01D901F047F824251370DAE5802391
:1019E0009B039E421DD143465B0601D401F0AEFA33
:1019F000644EE50F3378002B01D001F00EF86A49F0
:101A0000624A8C46137862495800ED000133654400
:101A1000DBB24552132B01D900F0FAFF33251370C6
:101A2000B8E58023DB039E4201D001F0ADFA002F20
:101A300001D001F0A9FA534EE50F3378002B01D104
:101A400000F0C5FD5949514A8C4613785049580059
:101A5000ED0001336544DBB24552132B01D900F090
:101A6000CDFF0325137095E5202F01D101F017FC60
:101A7000402F00D03FE1434EE50F3378002B01D1DA
:101A800000F091FD4A49414A8C461378404958007C
:101A9000ED0001336544DBB24552132B01D900F050
:101AA000B2FF0125137075E5002800D041E39A7854
:101AB000002E01D000F0A5FC40201F780243390021
:101AC00094463C4A3C4D147861402970A74201D0AD
:101AD00000F013FF002440216046084359789870B5
:101AE0000F008446507847406F70814201D100F06A
:101AF00099FE814201D800F02DFF01345170594602
:101B0000002901D100F08EFE40211878084318709A
:101B100060460843C1B20F00997090784740AF709B
:101B2000814201D000F089FE4027187839433843BC
:101B30001870D878C9B206009970D7787E40EE70D8
:101B4000B84201D000F08DFE40201F7807430843C3
:101B5000C1B2187999708C4601001F7017797940CD
:101B60002971B84201D000F092FE4020197801435B
:101B70001970402160460843987084E5013C51701B
:101B80007EE4C0465925002001F7FFFF57250020BD
:101B90007825002001FEFFFF02EFFFFF01EFFFFFAE
:101BA00003EFFFFF03F7FFFF02F7FFFF00FBFFFF5D
:101BB00000FDFFFFCCD80120FC9F0120002800D0B1
:101BC00051E1DA789978002E03D040241878204328
:101BD000187040200243D7B21A78014394466446F5
:101BE000DD4ADE4D1078C9B244402C700024844593
:101BF00006D06646B0426441604201241670044338
:101C00005846002801D000F087FC9970DF705678A4
:101C10005878B44646406E70604501D100F02BFD07
:101C2000604501D800F0D1FE0134507058460028BC
:101C300001D100F020FD4026B44666461878997020
:101C400030430E001870DF7090784640AE708142CD
:101C500001D000F018FD4026B44666461878997009
:101C600030433E001870DF70D0784640EE708742F7
:101C700001D000F01CFD4026B4466646187830437B
:101C8000187016791879B44646402E71604504D014
:101C900001D800F08AFE013410715846002803D0A4
:101CA00040261878304318709970DF70FFF70CFCED
:101CB000013C9170FFF7F0FB013CD170FFF7F8FB9E
:101CC000013C1171FFF700FC202E35D8002E00D109
:101CD00083E020220023300039001FF051FC013046
:101CE000012803D89E4BB6009B599F460025002C27
:101CF00000DD52E450E4102F00D03FE543465B0680
:101D000001D401F044FA974EE50F3378002B01D14E
:101D100000F054FF9449954A8C4613789449580032
:101D2000ED0001336544DBB24552132B01D900F0BD
:101D300040FF212513702DE480235B009E4201D1DA
:101D400001F043FADB189E4201D001F01AFA002F8D
:101D500001D001F016FA43465B0601D401F023FAE4
:101D6000804EE50F3378002B01D100F073FE8149DE
:101D70007E4A8C4613787E495800ED000133654455
:101D8000DBB24552132B01D900F05FFE3F251370E3
:101D9000FFF700FC002F01D0FFF7D7FB43465B069F
:101DA00001D401F0E2F96F4EE50F3378002B01D139
:101DB00000F012FF70496D4A8C4613786C49580048
:101DC000ED0001336544DBB24552132B01D900F01D
:101DD000FEFE3E251370FFF7DDFB0025002C01DD24
:101DE000FFF7DBFBFFF7D8FB43465B0600D411E2AD
:101DF0005C4EE50F3378002B00D0CBE35F495B4AA4
:101E00008C4613785A495800ED0001336544DBB223
:101E10004552132B01D900F0A6FE34251370FFF7AD
:101E2000B9FB082F00D0A2E443465B0601D401F0C1
:101E300069F94C4EE50F3378002B01D000F026FEF7
:101E40004F494A4A8C46137849495800ED000133FE
:101E50006544DBB24552132B01D900F030FE30252A
:101E60001370FFF797FBD8789F785978002E03D02E
:101E700040241A7822431A7040221143C9B28C467A
:101E8000197817430C000243D2B29146324A334DBF
:101E90001078FFB244402C700024814205D0884263
:101EA000804102340440013C11705846002802D0A1
:101EB00040200143197060465178484068708C4555
:101EC00005D001D800F05DFD0134614651705946DE
:101ED000002903D040201978014319703800917807
:101EE0004840A8708F4204D001D800F079FD013439
:101EF00097705946002903D0402019780143197082
:101F00004846D1784840E870894505D001D800F0AE
:101F100049FD01344946D1705946002903D040207B
:101F2000197801431970197910790E0046402E7105
:101F3000814204D001D800F03BFD013411715946B3
:101F4000002903D0402019780143197061469F7021
:101F500059704946FFF796FBCCD80120FC9F012021
:101F6000401602105925002000F7FFFF57250020DA
:101F700078250020047F0000027F000003F7FFFFA8
:101F800000EFFFFF5978002E00D07BE24027187841
:101F900039430700E34AE44D147867402F70A042AC
:101FA00000D0D8E300244020014359705078070046
:101FB0004F406F70884209D0884201D300F00AFD7B
:101FC000013458465170002800D079E24020014386
:101FD00098785970060097787E40AE70B84201D16B
:101FE00000F060FC874201D300F0C8FC013490701F
:101FF0005846002801D100F055FC40201F780143CD
:102000000743D878C9B206001F705970D7787E4050
:10201000EE70B84201D000F04FFC40201F78014321
:102020000743C9B259701F7017798C463900187967
:1020300041402971874201D000F054FC40201978BA
:10204000014319704021604608435870FFF73CFA7D
:102050005978002E03D0402418782043187040246B
:102060002243D7B21A78214394466446AD4AC8B297
:102070001178AD4D4C402C7000248C4506D066463E
:10208000B14264416142012416700C435946002953
:1020900000D033E206005870DF7051784E406E7009
:1020A000884200D1C2E2884201D800F085FC0134A8
:1020B00059465070002900D1B8E24026B446664621
:1020C0001978587031431970DF7096789978B44652
:1020D0004E40AE70614500D0B1E24026B44666463F
:1020E0001978587031433E001970DF70D1784E4036
:1020F000EE708F4200D0B4E24026B44666461978AE
:102100003143197016791979B4464E402E716145E4
:1021100004D001D800F061FC013411715946002946
:1021200003D040261978314319705870DF70FFF7DB
:10213000AAFA99785F78002E03D040201A780243DB
:102140001A704022174311431A78774D944664461B
:10215000744AFFB21078C9B244402C700024844500
:1021600006D06646B04264416042012416700443C2
:102170005846002800D0B3E13E005F709970507857
:1021800046406E70874200D12BE2874201D800F0B2
:1021900004FC013458465770002800D121E2402643
:1021A000B446664618785F7030430E001870997018
:1021B00090784640AE70814200D01AE24026B44684
:1021C000664618785F70304318709970D678D87862
:1021D000B4464640EE70604500D01DE24026B4464D
:1021E000664618783043187016791879B446464018
:1021F0002E71604503D000D8F6E3013410715846C3
:10220000002803D040261878304318705F7099700A
:10221000FFF75AF9434672250322DB0600D4E7E3B1
:102220000321FB20E30FFFF75FF8FFF7B3F9434605
:102230005B0601D400F0AEFE3C4EE50F3378002B78
:1022400001D000F073FC3A493A4A8C4613783A4977
:102250005800ED0001336544DBB24552132B01D920
:1022600000F00FFC35251370FFF794F943465B0629
:1022700001D400F09BFE2D4EE50F3378002B01D1E9
:1022800000F05EFC2A492B4A8C4613782A495800F4
:10229000ED0001336544DBB24552132B01D900F048
:1022A00020FC25251370FFF775F943465B0601D422
:1022B00000F0E1FC1D4EE50F3378002B01D000F05B
:1022C00048FC1E491B4A8C4613781B495800ED00F8
:1022D00001336544DBB24552132B01D900F014FCE5
:1022E00036251370FFF756F943465B0601D400F01C
:1022F000FDFE0E4EE50F3378002B01D100F0FBFB05
:102300000F490C4A8C4613780B495800ED000133F5
:102310006544DBB24552132B00D9E7E32F25137038
:10232000FFF738F9CCD80120FC9F01205925002067
:1023300004F7FFFF572500207825002004EFFFFF5A
:1023400001BFFFFF43465B0601D400F0E7FEDE4E0F
:10235000E50F3378002B00D1E0E3DC49DC4A8C4602
:102360001378DC495800ED0001336544DBB2455277
:10237000132B00D9CDE322251370FFF70BF9434649
:102380005B0601D400F0D6FECF4EE50F3378002B6C
:1023900000D19EE3D049CE4A8C461378CD495800EF
:1023A000ED0001336544DBB24552132B00D98BE3BA
:1023B0002B251370FFF7EEF8402118780A430843E5
:1023C000C7B23900D2B29446C44AC54D14781870C9
:1023D00061402970A74200D018E2002440216046E5
:1023E00008430F43C1B25878D9708C4601001F7062
:1023F000577879406970B84201D1FFF70BF9FFF7C0
:10240000FEF840211C780A430C43E7B23900D2B2EF
:102410009446B24A1C701478B14D61402970A742AD
:1024200000D06AE20024402061460143C9B299709D
:102430008C46597807431F700F00507847406F70E3
:10244000814201D1FFF760FBFFF753FB40221143AC
:10245000A24AA34D147819702000C9B248402870D0
:102460008C4200D082E10024402001431970597849
:1024700050780F0047406F70814201D1FFF73BF960
:10248000FFF72EF940221878114310431870C0B29C
:102490000700924A924D1478C9B267402F70A0424B
:1024A00000D058E1002440273943C9B238430F0017
:1024B00018705970507847406F70814200D07BE5AA
:1024C00040201F78014307439878C9B206001F7067
:1024D000597097787E40AE70B84200D18DE581E5A5
:1024E0004020664606431E703E005F70997050782B
:1024F00046406E70874200D151E646E6402166466E
:102500000E431E7006005870DF7051784E406E709A
:10251000884200D1D1E5C6E54020664606431E70DC
:102520009970DF7056785878B44646406E706045B2
:1025300001D1FFF780FBFFF773FB002F01D0FFF7FE
:1025400009F943465B0600D489E35F4EE50F337813
:10255000002B00D11BE363495D4A8C4613785D492B
:102560005800ED0001336544DBB24552132B00D90E
:1025700015E323251370FFF70DF84346DB0600D45F
:1025800039E2772503220121FB20E30FFEF7ACFEA1
:10259000FFF700F8012309220021FE20FEF7A4FE28
:1025A000002333702AE4002309221900FE20FEF7DD
:1025B0009BFE01233370FFF765FA002309221900FF
:1025C000FE20FEF791FE01233370FFF730F9002360
:1025D00009221900FE20FEF787FE01233370FFF762
:1025E00031FA0E005F70997090784640AE7081426B
:1025F00008D0814200D8D3E10134584691700028B8
:1026000000D0DBE55F709970D678D878B446464044
:10261000EE70604500D1E7E5604500D8CFE10134B8
:10262000D0705846002800D0D8E5DDE55870DF703E
:1026300096789978B4464E40AE70614508D06145B1
:1026400000D8BEE1013491705946002900D044E51C
:102650003E005870DF70D1784E40EE708F4200D14E
:1026600050E58F4200D8B3E101345946D7700029B4
:1026700000D041E546E50E009970DF709078464045
:10268000AE70814209D0814200D89CE101345846A5
:102690009170002801D0FFF7DEFA3E009970DF70DC
:1026A000D0784640EE70874201D1FFF7EAFA8742C0
:1026B00000D870E101345846D770002801D0FFF7E8
:1026C000DAFAFFF7DEFAC0465925002001F7FFFFCE
:1026D000572500207825002004BFFFFFCCD801201B
:1026E000FC9F012002F7FFFF9078997807004F4088
:1026F000AF70884209D0884200D345E1013491701F
:102700005946002901D0FFF703F8D978D0780F0097
:102710004740EF70814209D0884200D336E101344E
:10272000D1705946002901D0FEF7FFFF19791079C1
:102730000F0047402F71814201D1FEF7C5FE88424C
:1027400000D353E1013411715946002901D0FEF73D
:10275000F9FFFEF7B9FE8442A44102275E463C40E1
:10276000013C1070002E00D09DE61CE400208C423D
:10277000404101244042044358461170002800D0D3
:1027800072E6FEF7A4FF4020614601439878D970B5
:102790008C46010097787940A970B84209D0B842B8
:1027A00000D8DEE0013459469070002901D0FEF7D0
:1027B00043FF40216046084301000F00D870D078E5
:1027C0004740EF70814209D0814200D8CEE0013409
:1027D0005846D170002801D0FEF73EFF402001434B
:1027E0001879D970060017797E402E71B84201D150
:1027F000FEF746FFB84200D8B1E0013410715846E8
:10280000002801D0FEF738FFFEF73AFF0221BC4254
:10281000A4410C405946013C1770002900D0DDE569
:10282000FEF7DFFE40216046084301000F0098706C
:1028300090784740AF70814209D0814200D899E03A
:10284000013458469170002801D0FFF76DF94020FF
:102850000143D87899700600D7787E40EE70B84270
:1028600008D0B84279D90134D0705846002801D038
:10287000FFF76AF940200143187999708C460100EE
:10288000177979402971B84201D1FFF772F9B8423E
:1028900072D9013459461071002901D0FFF765F94A
:1028A000FFF767F940200143D87859700600D778C0
:1028B0007E40EE70B84208D0B84259D90134D07089
:1028C0005846002801D0FFF7A8FB4020014359706B
:1028D00017798C463900187941402971874201D116
:1028E000FFF7B0FBB84233D90134594610710029C3
:1028F00001D0FFF7A3FBFFF7A5FB0221BC42A441D7
:102900000C405946013C1770002900D08BE5FFF7B9
:10291000E2F8002F01D0FEF727FFE94EE50F3378EC
:10292000002B00D166E1E749E74A8C461378E74976
:102930005800ED0001336544DBB24552132B00D93A
:1029400053E102251370FEF725FE0025FEF722FE57
:10295000013CCAE7013CFFF7D1F8013C84E7013CA8
:102960004CE7013C1FE7013CFEF74EFE013C2FE720
:10297000013CA4E7013C64E7013C8BE7013CFFF725
:1029800036FB013CFFF7A1FA013CB8E6013CC7E683
:10299000013CFEF7AAFE013C8DE6013CFFF7FAFB85
:1029A000013C2AE6013CFFF7B5FA013CFFF774F958
:1029B000013C1171FFF7C3FA013CFFF779FB013CC1
:1029C0002EE6013C3FE6013C61E6013CFFF72DF9B4
:1029D000013C4AE6013CFFF7F4FA013CFFF79DFB9E
:1029E000013C9770FFF785FA013C07E4013CAAE639
:1029F0005225022214E457250222C4E500230325B0
:102A00001370FEF7C7FD002301251370FEF7C2FD0A
:102A1000002333251370FEF7BDFD01230922002199
:102A2000FE20FEF761FC00233370FEF7E8FF002371
:102A300029251370FEF7AEFD19000922FE20FEF7CE
:102A400053FC01233370FEF76EFF00233F25137004
:102A5000FEF7A0FD19000922FE20FEF745FC012328
:102A60003370FFF784F9002324251370FEF792FDDD
:102A700019000922FE20FEF737FC01233370FEF710
:102A80009CFF002335251370FEF784FD01230922E6
:102A90000021FE20FEF728FC00233370FFF7D0F959
:102AA000002332251370FEF775FD01230922002152
:102AB000FE20FEF719FC00233370FEF78EFE002384
:102AC00030251370FEF766FD00232B251370FEF7EB
:102AD00061FD19000922FE20FEF706FC0123337078
:102AE00058E4002325251370FEF754FD00232F25FD
:102AF0001370FEF74FFD19000922FE20FEF7F4FBCC
:102B000001233370FFF7FCFB002336251370FEF71B
:102B100041FD002322251370FEF73CFD1900092218
:102B2000FE20FEF7E1FB0123337016E401230922A6
:102B30000021FE20FEF7D8FB00233370FFF783FB54
:102B400019000922FE20FEF7CFFB01233370FFF7A7
:102B500099FB012309220021FE20FEF7C5FB00237B
:102B60003370FFF7AEFB002334251370FEF712FD20
:102B7000002339251370FEF70DFD012309220021E2
:102B8000FE20FEF7B1FB00233370FEF7A4FE190010
:102B90000922FE20FEF7A8FB01233370DBE40023AB
:102BA00023251370FEF7F6FC002304251370FEF7AF
:102BB000F1FC002321251370FEF7ECFC190009221B
:102BC000FE20FEF791FB01233370FFF7A3F80023EB
:102BD0003E251370FEF7DEFC19000922FE20FEF7E9
:102BE00083FB01233370FFF7E5F800230225137000
:102BF000FEF7D0FC002309221900FE20FEF774FB2B
:102C0000012333708FE6002337251370FEF7C2FCD3
:102C1000012309220021FE20FEF766FB002333700A
:102C2000FEF7A3FE002328251370FEF7B3FC19005E
:102C30000922FE20FEF758FB01233370FEF723FE26
:102C4000002338251370FEF7A5FC0123092200217B
:102C5000FE20FEF749FB00233370FEF78AFC434653
:102C6000DB0620D5642503220221FD20E30FFEF7B9
:102C70003BFBFEF78FFC4346DB0617D57925032285
:102C80000421DF20E30FFEF72FFBFEF783FC434612
:102C9000DB060ED56F2503220121DF20E30FFEF7AF
:102CA00023FBFEF777FC44250222DDE759250222AB
:102CB000E6E74F250222EFE70025FEF76BFCC04652
:102CC0005925002001FDFFFF572500207825002011
:102CD0004346DB0617D5692503220221DF20E30FD7
:102CE000FEF702FBFEF756FC0025FEF753FC4346B9
:102CF000DB060BD5782503220221FE20E30FFEF729
:102D0000F3FAFEF747FC49250222E6E7582502229E
:102D1000F2E743465B0622D5D24EE50F3378002B0F
:102D200010D0D149D14A8C461378D1495800ED00D2
:102D300001336544DBB24552132B0BD83C2513708D
:102D4000FEF728FC19000922FE20FEF7CDFA012328
:102D50003370E6E700233C251370FEF71BFC434667
:102D6000DB063AD56E25032203217F20E30FFEF711
:102D7000BBFAFEF70FFC43465B0622D5B94EE50FC2
:102D80003378002B10D0BB49B84A8C461378B84929
:102D90005800ED0001336544DBB24552132B0BD8CC
:102DA0002D251370FEF7F6FB19000922FE20FEF711
:102DB0009BFA01233370E6E700232D251370FEF7FD
:102DC000E9FB4346DB060BD56C2503220121BF201E
:102DD000E30FFEF789FAFEF7DDFB4E250222C3E77B
:102DE0004C250222F2E74346DB0600D49FE075251E
:102DF00003220321DF20E30FFEF776FAFEF7CAFB7A
:102E0000082F20D1002E01D0FEF7B8FC022F37D0BA
:102E1000002E1AD1042F1BD1924DE60F2B78002BD8
:102E200059D1FE21C9018C46904A91491378F60088
:102E3000580001336644DBB24652132B61D820257B
:102E40001370FEF7A7FB002EE0D00025FEF7A2FBD3
:102E5000012FFAD1834EE50F3378002B5BD18649E1
:102E6000824A8C46137882495800ED00013365444C
:102E7000DBB24552132B49D80D251370FEF78AFBA0
:102E800043465B0650D41023464642461E4013423A
:102E90000BD0002C01DCFEF77FFB0123774A1E25B7
:102EA00011785B1A1370FEF778FB6E4FE50F3B78D5
:102EB000002B1ED172496D4A8C4613786C4958001C
:102EC000ED0001336544DBB24552132B0CD80825C5
:102ED0001370FEF75FFB012309220021FE20FEF79D
:102EE00003FA00232B709CE7002308251370FEF7DC
:102EF00051FB012309220021FE20FEF7F5F93E7067
:102F0000D8E7002320251370FEF744FB00230D258E
:102F10001370FEF73FFB012309220021FE20FEF77C
:102F2000E3F9002333709AE71F25FEF733FB55259D
:102F300002225EE74346DB0614D566250322032101
:102F4000FD20E30FFEF7D0F9FEF724FB4346DB0636
:102F50000BD5652503220221FB20E30FFEF7C4F900
:102F6000FEF718FB46250222E9E745250222F2E793
:102F70004346DB060BD57A2503220121FE20E30F11
:102F8000FEF7B2F9FEF706FB0025FEF703FB5A2514
:102F90000222F2E74346DB0614D5742503220421FE
:102FA000FB20E30FFEF7A0F9FEF7F4FA4346DB0639
:102FB0000BD5672503220421FD20E30FFEF794F9CA
:102FC000FEF7E8FA54250222E9E747250222F2E754
:102FD00043465B0615D5234EE50F3378002B2BD1E6
:102FE0002849224A8C46137821495800ED000133C4
:102FF0006544DBB24552132B19D82C251370FEF70C
:10300000C9FA184EE50F3378002B23D01D49174A13
:103010008C46137816495800ED0001336544DBB245
:103020004552132B11D82E251370FEF7B3FA002347
:103030002C251370FEF7AEFA012309220021FE2091
:10304000FEF752F900233370CAE700232E251370D0
:10305000FEF7A0FA19000922FE20FEF745F9012328
:103060003370D3E759250020037F00005725002047
:103070007825002003BFFFFF00BFFFFF562500207B
:1030800000FEFFFF017F000043465B0622D5A04EF5
:10309000E50F3378002B10D09E499F4A8C46137859
:1030A0009E495800ED0001336544DBB24552132BB5
:1030B0000BD840251370FEF76DFA19000922FE2087
:1030C000FEF712F901233370E6E700234025137061
:1030D000FEF760FA4346DB0638D57325032201214B
:1030E000FD20E30FFEF700F9FEF754FA4346DB0636
:1030F0002FD5762503220421FE20E30FFEF7F4F8F6
:10310000FEF748FA4346DB0629D570250322002145
:10311000DF20E30FFEF7E8F8FEF73CFA4346DB0654
:103120001AD56225032204217F20E30FFEF7DCF885
:10313000FEF730FA4346DB0614D568250322042146
:10314000BF20E30FFEF7D0F8FEF724FA5325022242
:10315000C5E756250222CEE742250222E3E75025A5
:103160000222D4E748250222E9E74346DB060BD5D5
:103170006D25032202217F20E30FFEF7B5F8FEF74D
:1031800009FA0025FEF706FA4D250222F2E743462A
:10319000DB0614D5612503220021FD20E30FFEF795
:1031A000A3F8FEF7F7F94346DB060BD563250322A8
:1031B0000321FE20E30FFEF797F8FEF7EBF9412518
:1031C0000222E9E743250222F2E743465B0622D5C5
:1031D0004F4EE50F3378002B10D051494E4A8C46A4
:1031E00013784E495800ED0001336544DBB2455277
:1031F000132B0BD826251370FEF7CCF919000922E2
:10320000FE20FEF771F801233370E6E70023262540
:103210001370FEF7BFF94346DB063AD56A25032251
:103220000321BF20E30FFEF75FF8FEF7B3F9434633
:103230005B0622D5364EE50F3378002B10D0394986
:10324000354A8C46137835495800ED000133654402
:10325000DBB24552132B0BD82A251370FEF79AF9CF
:1032600019000922FE20FEF73FF801233370E6E73C
:1032700000232A251370FEF78DF94346DB060BD594
:103280006B2503220221BF20E30FFEF72DF8FEF786
:1032900081F94A250222C3E74B250222F2E7434681
:1032A0005B060BD44346DB062FD571250322002194
:1032B000FB20E30FFEF718F8FEF76CF9144EE50F4C
:1032C0003378002B10D11849134A8C4613781349D0
:1032D0005800ED0001336544DBB24552132B0CD886
:1032E00031251370FEF756F9012309220021FE2033
:1032F000FDF7FAFF00233370E5E700233125137053
:10330000FEF748F90025FEF745F951250222CEE7E0
:103310005925002004DFFFFF5725002078250020D5
:1033200004EFFFFF02BFFFFF00F7FFFFF0B5594BAF
:10333000594C1B78217859488B4228D00268531E7B
:10334000002A01DD0360F0BD0F26554B4A00D25A1A
:10335000170A3B001640FF2F0AD0DE2F10D93A0083
:103360002132D2B21F2A03D84E4D9200AA58974656
:1033700000220F2E00D988E04B4DB600AD59AF4664
:103380007F2F1BD0BF2FF3D1484A1278F1E7036893
:10339000002BD8DD013BD5E7454A1278E9E7454ADD
:1033A0001278E6E7444A1278E3E7444A1278E0E705
:1033B000434A1278DDE7434A1278DAE7424A127844
:1033C000D7E70225AA431500FF2F0FD0DE2B07D920
:1033D0002133DBB21F2B09D83C4A9B00D3589F46B0
:1033E0007F2B4FD0BF2B01D1304B1D600131C9B2B3
:1033F000132943D802232170A4E72D4B1D60F5E764
:10340000304B1D60F2E72E4B1D60EFE72B4B1D602C
:10341000ECE7294B1D60E9E7264B1D60E6E74025F8
:103420001543D1E780251543CEE70425AA431500AF
:10343000CAE70825AA431500C6E71025AA431500C8
:10344000C2E72025AA431500BEE74025AA43150080
:10345000BAE77F251540B7E701251543B4E70225F4
:103460001543B1E704251543AEE708251543ABE73F
:1034700010251543A8E720251543A5E70023237051
:1034800002235FE7104B1D60B0E70125AA4315003A
:103490009AE7C04657250020582500206C240020BC
:1034A00078250020C416021044170210640500207D
:1034B0007C050020680500206C05002070050020B8
:1034C0007405002078050020600500208417021094
:1034D0000300FF20DA0702D4134A126810409A074B
:1034E00002D4124A126810405A0702D4104A1268D5
:1034F00010401A0702D40F4A12681040DA0602D4AC
:103500000D4A126810409A0602D40C4A1268104004
:103510005A0602D40A4A126810401B0602D4094B0C
:103520001B6818407047C0467C05002078050020C5
:1035300074050020700500206C050020680500203F
:103540006405002060050020F0B5C64680251F4BAD
:1035500004001B6800B52D01AB420FDB1C4B1E683D
:103560001C4B1868002E0CDD002807D01A4B1B4995
:103570001B68984610F024F8071E18D104BC90462A
:10358000F0BD0028FAD0144B14491E6810F018F84A
:10359000041EF3D00022002110F048F82200290078
:1035A000300010F02BF8200010F038F8E6E721008A
:1035B00031400022C90210F039F83A002900404693
:1035C00010F01CF8380010F029F8D7E7702500201B
:1035D00098190020A0250020BCD801200418021052
:1035E000F0B5DE4657464E4645469020E0B5000110
:1035F0008DB00FF047FDC54B1860802000010FF023
:1036000041FD0023C24F8022386003700120C14970
:1036100012010B5C3C68235401309042F9D10FF049
:1036200031FD0024BC4BBD4E1860BD4B30001C600A
:10363000BC4BBD491C60BD4B1C60BD4B1C60BD4BF1
:103640001C60BD4B1C60BD4B1C60BD4B1C600FF073
:10365000B7FF051E06D10DB03CBC90469946A24668
:10366000AB46F0BD30000FF0EDFF060005300FF067
:1036700009FD814669200FF005FD2A0031008046D2
:1036800048460FF0BBFF4B4628009C5500930FF0B7
:10369000C5FF0021C246009A06911378013A0992AB
:1036A0001F2B01D900F060FF069A0099099801329A
:1036B00006E014008D180132835C1F2B00D9EEE068
:1036C000002BF6D100980FF011FD50460FF00EFDC3
:1036D000934BD0461B68002BBDDD954B1B680093B8
:1036E000002BB8DD964B904918680FF069FF041E57
:1036F000B1D08F4B00271B680026581D00930FF098
:10370000C1FC8B4A0500116822000FF077FF2000F2
:103710000FF084FF804A6C1E126891460022944686
:103720005246043204926A1C4B46AA4605926246EF
:10373000DA515346995D1F2915D8721C04E0130015
:103740000132A15C1F290FD80029F8D1802304374A
:103750001B019F4200D17EE74B466246DA51534639
:10376000995D1F29E9D933005246D21800219346AA
:1037700008000131555CCE181F2DF9D80292019036
:10378000424660461D1D5544AA42404100910390A7
:1037900059466046049D0322A9424041039D2843A7
:1037A0004546814602984946054315406A426A41AA
:1037B0000A4201D101F0A1FB0822019DAA4201D3D6
:1037C00001F09BFB1900009A89469508AA00130096
:1037D000009A00259346020041465059485104354D
:1037E000AB42F9D159465D4603204B460091029207
:1037F000854308421ED0525D914642464946515586
:1038000001996A1C91468D4214DAD346CB445A463C
:10381000D25C49469346424658465054019A023576
:10382000914507DAA946D1444A46D25C91464246C0
:103830004946515542466146009811540599364A09
:103840008B461268019991463A005B448B464A4484
:1038500000925B440021A346029A0BE00500413D23
:10386000ECB2052C0DD9652801D96138091801324F
:1038700093420AD0107809010500303DECB2092CC2
:10388000ECD8013249199342F4D1009B04371960F6
:1038900080235C461B019F4200D05DE7DBE6A1462A
:1038A000059500994A468C46013262441100019206
:1038B0009C4600224D460E00307814000132531908
:1038C00001311F28F7D80693A9466346A346162A56
:1038D00001DC00F052FE290001398C4600980122DB
:1038E00060440400174D089104E00132182A01D108
:1038F00000F044FFA05CA95C8842F6D000980899CB
:103900008446614401220D000F4C24E0B4D801200C
:10391000BCD80120A0220210F89F01200818021034
:10392000D4D801200CA0012004180210702500201A
:10393000A8250120DCD8012068250020A025002032
:10394000B02501201B180210431802100132142A5E
:1039500001D100F01CFEA85CA15C8842F6D0462B89
:1039600001D000F0FCFD019B1B78692B01D000F019
:10397000F6FD009B4B441C009B786C2B00D03DE176
:10398000E378652B00D039E12279522A00D035E165
:1039900063796F2B00D031E1A3796D2B00D02DE13D
:1039A000E3793D2B00D029E18821F04BC900585C18
:1039B000522831D05A543968ED4A8C46A4211278E5
:1039C0008900624451180D78EA48EB490D54EB48E0
:1039D00010180578EA480D54EA4810180578EA48A6
:1039E0000D54EA4810180578E9480D54A5208000C8
:1039F00010180578E7480D54E74810180578E7488F
:103A00000D54E74810180578E6480D54E6488446FA
:103A100062441078E54A8854E54A995C4F2932D0CF
:103A20004F2199543968D24A8C469E2112788900D8
:103A3000624451180D78DF48CF490D54DE48101804
:103A40000578DE480D54DE4810180578DD480D5421
:103A5000DD4810180578DD480D549F2080001018AF
:103A60000578DB480D54DB4810180578DA480D540A
:103A7000DA4810180578DA480D54DA48844662446A
:103A80001078D94A8854D94A995C4D2932D04D21B1
:103A900099543A68B64B94469A221B789200634434
:103AA0009A181078D249B44A5054D2495918087813
:103AB000D1495054D14959180878D1495054D14965
:103AC00059180878D04950549B2189005918087812
:103AD000CE495054CE4959180878CE495054CE4951
:103AE00059180878CD495054CD498C46634419780B
:103AF000CC4BD1545246632313700C3353700D3B9F
:103B000093701033D370113B1371323B53715B468A
:103B1000073B02935B46072B50D0082200984A448B
:103B2000944602008046534600204D4662441100F0
:103B30009A1D03000C354544AA4243411D000A2347
:103B40005344994240411300284303250B431D4031
:103B50002B005D425D41054201D101F0C2F958469A
:103B60000838082801D801F0BCF9029B00209846CB
:103B70009D08AD000B5813500430A842FAD1032120
:103B8000434645468B431A00294217D06046009BA6
:103B900002959918085C514689188871501C404557
:103BA0000CDA984665464044405D029D0232C87179
:103BB000AA4203DA63464244D35C0B7253460022A6
:103BC0005B44013B50461A701DF0A8FB092801D93F
:103BD00000F0D6FF944B22211B6804201A000293A8
:103BE000FCF7B8FB059B1B78462B01D000F0B7FC17
:103BF000019B1B78692B01D000F0B1FCA3786C2BE2
:103C000000D0D6E1E378652B00D0D2E12279522AA8
:103C100000D0CEE16379612B00D0CAE1A3796D2B8E
:103C200000D0C6E1E3793D2B00D0C2E18C214F4B9F
:103C3000C900585C522831D05A5439684C4A8C46D5
:103C4000A42112788900624451180D7877484A49B6
:103C50000D544A481018057875480D5449481018F5
:103C6000057874480D5449481018057872480D5469
:103C7000A52080001018057870480D54464810188B
:103C800005786F480D544648101805786D480D5456
:103C900045488446624410786B4A88546B4A995C64
:103CA000412932D0412199543968314A8C468221C8
:103CB00012788900624451180D7865482E490D54D8
:103CC00064481018057864480D5464481018057845
:103CD00063480D5463481018057863480D548320D9
:103CE00080001018057861480D5461481018057857
:103CF00060480D5460481018057860480D546048BD
:103D00008446624410785F4A88545F4A995C4D2922
:103D100000D1CFE04D2199543A68154B94469A2230
:103D20001B78920063449A1810785849124A5054EC
:103D3000304959180878564950543049591808786C
:103D4000544950542F4959180878534950549B21CD
:103D5000890059180878514950542D495918087844
:103D60004F4950542C49591808789BE0B825012038
:103D70005D250020553D0000B82E01209102000075
:103D8000853D000092020000B53D00009302000056
:103D9000E53D0000153E000095020000453E000094
:103DA00096020000753E000097020000A53E00004C
:103DB00041040000563D000079020000863D0000ED
:103DC0007A020000B63D00007B020000E63D0000E4
:103DD000163E00007D020000463E00007E0200000C
:103DE000763E00007F020000A63E00004204000074
:103DF000573D000069020000873D00006A02000094
:103E0000B73D00006B020000E73D0000173E0000D8
:103E10006D020000473E00006E020000773E000089
:103E20006F020000A73E0000D4D80120D53E00005C
:103E3000053F0000353F0000653F0000953F000052
:103E4000C53F0000F53F0000254000006104000070
:103E5000D63E000009020000063F00000A020000F2
:103E6000363F00000B020000663F0000963F000056
:103E70000D020000C63F00000E020000F63F0000E9
:103E80000F0200002640000062040000D73E000040
:103E9000073F0000373F0000673F0000973F0000EA
:103EA000C73F0000E0495054E0498C46634419780C
:103EB000DF4BD1545246632313700C3353700D3BC8
:103EC00093701033D370113B1371323B53715B46C7
:103ED000073B02935B46072B4DD008234B449C467F
:103EE000009B00201A004D4662441100984652463D
:103EF00003000C3545440632AA4243411D000A2303
:103F00005344994240411300284303250B431D406D
:103F10002B005D425D41054201D100F0D6FF5846BD
:103F20000838082801D800F0D0FF029B00209846EE
:103F30009D08AD000B58135004308542FAD103217F
:103F4000434645468B431A00294214D06046009BE5
:103F500002959918085C514689188871501C854251
:103F600009DD6344185C1D0043460232C871934268
:103F700001DDAB5C0B72534600225B44013B5046B3
:103F80001A701DF0CBF9092801D900F06DFEA94B7C
:103F900023211B6804201A000293FCF7DBF9059B20
:103FA0001B78462B00D0DAE2019B1B78692B00D0EE
:103FB000D5E2A3786C2B00D09EE1E378652B00D08E
:103FC0009AE12279432A00D096E16379682B00D0E8
:103FD00092E1A379722B00D08EE1E3793D2B00D0E2
:103FE0008AE18021944BC900585C432831D05A544F
:103FF0003968924A8C4686211278890062445118A9
:104000000D788F488F490D548F48101805788F48C8
:104010000D548F48101805788E480D548E4810188E
:1040200005788E480D5487208000101805788C483C
:104030000D548C48101805788B480D548B48101877
:1040400005788B480D548B488446624410788A4A20
:1040500088548A4A995C482932D048219954396851
:10406000764A8C46902112788900624451180D7866
:10407000834874490D5483481018057882480D54BC
:1040800082481018057882480D5482481018057827
:1040900081480D5491208000101805787F480D54F8
:1040A0007F48101805787F480D547F481018057810
:1040B0007E480D547E488446624410787D4A885478
:1040C0007D4A995C522932D0522199543A685B4B0F
:1040D0009446A4221B78920063449A18107877497A
:1040E000584A5054764959180878764950547649B8
:1040F0005918087875495054754959180878754900
:104100005054A521890059180878734950547349AF
:1041100059180878724950547249591808787249E8
:10412000505472498C4663441978714BD1545246AD
:10413000632313700C3353700D3B93701033D370A3
:10414000113B1371323B53715B46073B02935B4655
:10415000072B4BD008234B449C46009B00201A00A1
:104160004D46624411009846524603000C354544C2
:104170000632AA4243411D000A235344994240415A
:104180001300284303250B431D402B005D425D4176
:10419000054201D100F08DFE58460838082801D8A4
:1041A00000F087FE029B002098469D08AD000B584A
:1041B000135004308542FAD10321434640468B43D5
:1041C0001A00014212D0009B63449D5C9C465346FA
:1041D00099188D71551C4346A84207DD6046455D20
:1041E0000232CD71934201DD835C0B725346002293
:1041F0005B44013B50461A701DF090F8092801D924
:1042000000F0A6FD3B4B1A6820210420FCF7A2F821
:10421000059B1B78462B00D0A1E1019B1B78692BE5
:1042200000D09CE168E0C046F73F00006F0200004C
:10423000274000000CA00120B82501205D250020AA
:10424000553A0000B82E012019020000853A0000FE
:104250001A020000B53A00001B020000E53A000017
:10426000153B00001D020000453B00001E0200003F
:10427000753B00001F020000A53B00000104000088
:10428000563A000041020000863A00004202000057
:10429000B63A000043020000E63A0000163B000078
:1042A00045020000463B000046020000763B00004D
:1042B00047020000A63B000002040000573A00003D
:1042C00091020000873A000092020000B73A000015
:1042D00093020000E73A0000173B0000950200003F
:1042E000473B000096020000773B00009702000069
:1042F000A73B000070250020A3786C2B00D02EE196
:10430000E378652B00D02AE123794C2B00D026E1FD
:104310006279732A00D022E1A279742A00D01EE1CA
:10432000E2793D2A00D01AE18422E049D200895C7A
:104330004C2932D0DD498B543A68DD4B94469822A3
:104340001B78920063449A181078DA49DA4A50547C
:10435000DA4959180878DA495054DA49591808786E
:10436000D9495054D94959180878D94950549921F4
:10437000890059180878D7495054D74959180878EE
:10438000D6495054D64959180878D6495054D64978
:104390008C4663441978D54BD154D54BC34AD25C73
:1043A000532A33D05322C149CA543A68C04B944669
:1043B000A6221B78920063449A181078CD49BE4A11
:1043C0005054CD4959180878CC495054CC49591803
:1043D0000878CC495054CC4959180878CB495054E6
:1043E000A721890059180878C9495054C949591852
:1043F0000878C9495054C94959180878C8495054CF
:10440000C8498C4663441978C74BD154C74BA74A57
:10441000D25C542A33D05422A449CA543A68A44BDB
:104420009446A8221B78920063449A181078C049D9
:10443000A14A5054BF4959180878BF495054BF4940
:1044400059180878BE495054BE4959180878BE49D1
:104450005054A921890059180878BC495054BC49C6
:1044600059180878BB495054BB4959180878BB49BA
:104470005054BB498C4663441978BA4BD1545246C8
:10448000632313700C3353700D3B93701033D37050
:10449000113B1371323B53715B46073B02935B4602
:1044A000072B49D04C460020009B4D469C460834C3
:1044B000191903000C3565440632AA4243411D0018
:1044C0000A235344994240411300284303250B43D8
:1044D0001D402B005D425D41054201D100F0DDFC35
:1044E00058460838082801D800F0D7FC029B002065
:1044F0009C469D08AD000B5813500430A842FAD1D9
:104500000321634665468B431A00294214D0009B61
:1045100002951919885C514689188871501C85428A
:104520000ADD9C466044005D029D0232C8719542DE
:1045300002DD6244135D0B725B4600225344013B73
:1045400050461A701CF0EAFE092800D98CE2864B0E
:1045500021211B6804201A000193FBF7FBFE33782E
:104560001F2B01D8FFF7A0F8069A0099944608007F
:10457000604491460590FFF794F9122A00DD6EE23F
:10458000072A01DDFFF7EBF90300FFF789F8494639
:104590005B461331122B00D1EFE1009B9C46581C67
:1045A00000234844614458449A00D3180A785B00B9
:1045B000303AD4B2092C00D89B1801318142F3D192
:1045C000002B00D1D9E13B68684A0893384B1400AE
:1045D0001B7821340A93C0239C46FF341500944471
:1045E00002946446D046B246F035614961487D3B4D
:1045F000039504940C789C423FD00A9C0B70A4460F
:10460000DB00089C6344E55C0131079530256D4271
:10461000AC4694446646A446079D634435705C7876
:10462000049E14709C78A446302465461555DC78A9
:10463000A4466024654615551C79A4469024654619
:1046400015555C79039D34709C7901362C70DB79AB
:10465000029C013523700378013401300132049645
:1046600003950294002BC5D10122434B56461A7084
:10467000059BC2461B78FFF772F9049C037801344E
:104680000494039C013101340394029C01300134F1
:1046900001320294002BADD10122374B56461A70DD
:1046A000059BC2461B78FFF75AF9C046B825012082
:1046B0005D250020D53B0000B82E012061020000DE
:1046C000053C000062020000353C0000630200006F
:1046D000653C0000953C000065020000C53C000000
:1046E00066020000F53C000067020000253D000066
:1046F00021040000D63B000099020000063C0000A7
:104700009A020000363C00009B020000663C00005C
:10471000963C00009D020000C63C00009E02000086
:10472000F63C00009F020000263D0000220400002D
:10473000D73B0000A1020000073C0000A2020000DD
:10474000373C0000A3020000673C0000973C0000DB
:10475000A5020000C73C0000A6020000F73C0000D4
:10476000A7020000273D0000A8250120C467012002
:104770009F290120591802105F25002049465B46F9
:104780001731162B00D186E0009B9C465C1C002351
:104790004C4461445C449A00D3180A785B00303A78
:1047A000D0B2092800D89B1801318C42F3D1002BDC
:1047B00071D03B68E34A0A93E34B14001B78213421
:1047C0000B93C0239C46FF34150094440494644624
:1047D000D046B246F035DD49DD487D3B0395029475
:1047E0000C789C423FD00B9C0B70A446DB000A9CCB
:1047F0006344E55C0131079530256D42AC46944435
:104800006646A446079D634435705C78029E14702A
:104810009C78A446302465461555DC78A44660246F
:10482000654615551C79A4469024654615555C7956
:10483000039D34709C7901362C70DB79049C013522
:1048400023700378013401300132029603950494F9
:10485000002BC5D10122BF4B56461A70059BC2469C
:104860001B78FFF74BF8029C037801340294039CF9
:10487000013101340394049C013001340132049469
:10488000002BADD10122B34B56461A70059BC24690
:104890001B78FFF733F83B68AA4A0A93AA4B140027
:1048A0001B7821340B93C0239C46FF34150094449D
:1048B00003946446D046B246F035A449A6486D3B01
:1048C000029504940C789C423FD00B9C0B70A4463C
:1048D000DB000A9C6344E55C0131079530256D429D
:1048E000AC4694446646A446079D634435705C78A4
:1048F000049E14709C78A446302465461555DC78D7
:10490000A4466024654615551C79A4469024654646
:1049100015555C79029D34709C7901362C70DB79D9
:10492000039C013523700378013401300132049671
:1049300002950394002BC5D10022864B56461A706F
:10494000059BC2461B78FEF7D9FF049C037801340F
:104950000494029C013101340294039C013001341F
:1049600001320394002BADD100227A4B56461A70C7
:10497000059BC2461B78FEF7C1FF3B68774A089348
:10498000714B14001B7821340A93C0239C46FF34DA
:104990001500944404946446D046B246F0357049FC
:1049A0007048733B039502940C789C423FD00A9C5C
:1049B0000B70A446DB00089C6344E55C013107955D
:1049C00030256D42AC4694446646A446079D634438
:1049D00035705C78029E14709C78A446302465463D
:1049E0001555DC78A4466024654615551C79A44607
:1049F0009024654615555C79039D34709C79013689
:104A00002C70DB79049C013523700378013401306C
:104A10000132029603950494002BC5D10022524B1B
:104A200056461A70059BC2461B78FEF798FF029CFB
:104A3000037801340294039C013101340394049CF3
:104A40000130013401320494002BADD10022464BD9
:104A500056461A70059BC2461B78FEF780FF2A0057
:104A6000013A0892FEF74AFF504640490EF0A8FD71
:104A7000041E00D16BE550461CF050FC02300EF0D5
:104A800001FB3B4B514618601CF040FC50460EF0B9
:104A9000D9FD384B1860364B19680B78002B4CD079
:104AA000F025AC463A6830359146274AA846127838
:104AB000603D0392304AAB46944465462F4801312D
:104AC00090440194029604789C422AD0039C03707F
:104AD000A4464C46DB006344E45C1E0030235B428A
:104AE0009C46944463461C7033004B445C781470BD
:104AF0009C78A446302466461655DC78A44660248B
:104B0000664616551C79A4469024664616555C796F
:104B1000A4465C46664616559C792C704446DB7963
:104B200023700124A4460B78013001310132013594
:104B3000E044002BC7D1019C029E20000EF06EFDC8
:104B400005E5C046BD6701205D25002098290120AC
:104B500035180210840500203D180210C46701209A
:104B60009F290120611802105F25002004180210FF
:104B7000B0250120A8250120C76A0120E2290120D3
:104B80005046EA490EF01CFD0290002801D1FFF7C3
:104B900021F850461CF0C2FB02300EF073FAE44BD1
:104BA000514618601CF0B2FB50460EF04BFDE14B35
:104BB0001860DF4B18680378002B50D0451CF0209C
:104BC0008446303080463A68DB490392DB4A0496DB
:104BD000127807940892DA4A9044404694440C783C
:104BE0009C4230D0089C0B70A046DB00039C4344E1
:104BF000E45C1E000A9430246442A046904443467C
:104C00000A9C1C70039C3300A04643445C781470DB
:104C10009C78A046302446461655DC78A046602491
:104C2000464616551C79A0469024464616555C7992
:104C3000A046C024464616559C79A0466446464682
:104C40002670DB7903700124A0462B7801310135F1
:104C50000132C4440130002BC1D1049E079C02984C
:104C60000EF0DCFCFEF7B6FF5046B0490EF0A8FC93
:104C70000290002801D1FFF78AF950461CF04EFB44
:104C800002300EF0FFF9AF4B514618601CF03EFBAE
:104C900050460EF0D7FCAC4B1860AA4B186803784E
:104CA000002B50D0451CF0208446303080463A68B6
:104CB000A6490392A14A0496127807940892A44A3E
:104CC0009044404694440C789C4230D0089C0B7031
:104CD000A046DB00039C4344E45C1E000A9430249D
:104CE0006442A046904443460A9C1C70039C3300D7
:104CF000A04643445C7814709C78A0463024464615
:104D00001655DC78A0466024464616551C79A04608
:104D10009024464616555C79A046C0244646165552
:104D20009C79A046644646462670DB7903700124D0
:104D3000A0462B78013101350132C4440130002BEB
:104D4000C1D1049E079C02980EF068FCFFF71FF982
:104D5000504676490EF034FC0290002801D1FFF74E
:104D600051FA50461CF0DAFA02300EF08BF9794B0A
:104D7000514618601CF0CAFA50460EF063FC764BA0
:104D80001860744B18680378002B50D0451CF02035
:104D90008446303080463A6870490392674A0496E8
:104DA0001278079408926E4A9044404694440C78D6
:104DB0009C4230D0089C0B70A046DB00039C43440F
:104DC000E45C1E000A9430246442A04690444346AA
:104DD0000A9C1C70039C3300A04643445C7814700A
:104DE0009C78A046302446461655DC78A0466024C0
:104DF000464616551C79A0469024464616555C79C1
:104E0000A046C024464616559C79A04664464646B0
:104E10002670DB7903700124A0462B78013101351F
:104E20000132C4440130002BC1D1049E079C02987A
:104E30000EF0F4FB484B1A6880231B019A4201DAFA
:104E4000FFF7E2F980235B019A4200DAAFE08023AA
:104E50009B019A4200DAA5E08023DB019A4200DA46
:104E60009BE080231B029A4200DA91E080235B02E0
:104E70009A4200DA87E080239B029A4200DA7DE0C2
:104E80008023DB029A4274DB80231B039A426BDB94
:104E9000FF21344B1960FFF7B7F9009B00219C46B6
:104EA000029B6444605C505401318B42FAD1FFF79D
:104EB00043FB0021009B63441800029B455C555452
:104EC00001319942FAD1FFF791F90021009B634427
:104ED0001800029B455C555401319942FAD1FFF705
:104EE0004AF80021009B63441800029B455C55541E
:104EF00001319942FAD1FEF761FE009900258946F9
:104F000041469846019B019A9B4602980132435DB7
:104F10004B550135AA42FAD14A4600925A464346B9
:104F2000029088460192FEF785FCC04604180210E4
:104F3000DCD80120D4D80120022A01205D250020E0
:104F4000476C0120682500200CA00120222A0120A6
:104F5000C76D0120A025002070250020C229012056
:104F600047690120981900207F21134B1960FFF732
:104F70004BF93F21104B1960FFF746F91F210E4BEB
:104F80001960FFF741F90F210B4B1960FFF73CF94E
:104F90000721094B1960FFF737F90321064B196008
:104FA000FFF732F90121044B1960FFF72DF90021B9
:104FB000014B1960FFF728F9981900209C2370B560
:104FC000194004290AD00C2916D0102906D01C2912
:104FD00002D10022154B1A70012070BD144B1549E7
:104FE0001B68D200086804329C58002801D0002CAD
:104FF00006DC114B1C60EFE71000FEF7A5FAEBE7AB
:105000009A18043A0D4916680EF0DAFA051EF0D027
:10501000310000220EF00AFB2A00210008480EF0A1
:10502000EDFA28000EF0FAFAE3E7C0468505002005
:10503000F89F0120DCD801208424002004180210ED
:10504000A8E5002070B5FEF7CBFA2B4B18680028B6
:1050500003D02A4B1C68002C1CDC8024284B240124
:105060001B68A3420ADB274B1868002806D0264B92
:1050700026491E680EF0A4FA051E30D1244B254A9D
:105080001B6810685C68002801D0002C14DC224BDF
:105090001C6070BD1D490EF093FA051EDDD0002284
:1050A00000210EF0C3FA2A0021001C480EF0A6FAD7
:1050B00028000EF0B3FAD0E714491E680EF080FA0B
:1050C000051EE4D0310000220EF0B0FA2A002100C3
:1050D00013480EF093FA28000EF0A0FAD7E700224A
:1050E00000210EF0A3FA2A00210030000EF086FA0B
:1050F00028000EF093FAC1E7682500200CA00120DB
:1051000070250020A0250020BCD801200418021022
:10511000F89F0120DCD8012084240020A82500204D
:10512000A8E50020F0B55746DE4645464E46D64B2C
:10513000E0B59A46D54B8FB09846D54BD54F9B4698
:10514000D54B0093D54B1B78002B03D0D44B1B7849
:105150005B0656D50021D34B1A78D34B02921A70B6
:10516000D04B19700123CD490B70D04B1E88D04B0A
:1051700018783300002803D08021C9018E423CD327
:10518000CC4909788C46002906D0CB498B4203D9FB
:10519000CA4A91464B449BB2C949CA4CCB5CCA49E6
:1051A000CA4D0B70CA49247809882D780391C949E2
:1051B000C94A097806940191C849C94C09781278FE
:1051C0000491C84909950978C74D24782D7805922E
:1051D0000A020D92220207910A9408950C922A0263
:1051E0000B92741CB14AA4B21480AD4A9B00117892
:1051F0004D1C1570BD4AD3589F46BD4BF3189BB24A
:10520000BEE70123BB4A1360A4E7534652461B681E
:105210000433136053461A6843461B6800269A42BB
:1052200001D305F05AF95B46009A1B681268002BFF
:1052300001D105F017F9002A01D005F017F9092B63
:1052400001DC05F067F9AC4B1B68022B05DC012380
:10525000AA4D3A682B6053461A605B4600221A60DA
:1052600053463A681B68934255D3A54C22689B1A53
:1052700042461268934201D205F005F9A14B9946C6
:105280001B680193002B01D005F0FDF89B4D013305
:105290002B609D4B1B68002B03D0002A01D105F029
:1052A00046F9FCF7BBF8C0B21F2801D105F04CF954
:1052B000964B01931B78002B01D005F04EF9FEF7B9
:1052C00035F8019B1B78002B01D005F03AF9904886
:1052D0000BF028FC8F4A00218F4812F01BFF534629
:1052E0001B684A4623600023136001222B608B4B0E
:1052F00052421A608A4B8B4A1268002A02D001215E
:10530000894A116000221A603A68884B1A60884BFB
:105310001B689B183B60002E00D113E70FB03CBC0C
:1053200090469946A246AB46F0BD534652461B688E
:1053300007331360002806D08023DB019C4202D291
:105340007C4BF418A4B26346002B06D05A4B9C4207
:1053500003D95A4B9C466444A4B2594B019D185D35
:1053600057222B1ADB05DB0D190091430A00190A9D
:1053700011430F2214002A400440A24292417F248C
:105380006840A0435D405C42634149B228409B01B4
:10539000524240090B43034312011A4302231A43AA
:1053A0004E4B02361A70414B1E8033E7534652462D
:1053B0001B680433136002233A4A13700022374BF0
:1053C0001A7027E753461B6851461A000A320A60D2
:1053D0006A46127C52B2002A01DA07F051F8334BC8
:1053E00003361E8016E7534652461B68043313608B
:1053F0000123514A1370514A13700022274B1A702F
:1054000008E7534652461B680A3313606B461B7C01
:105410005BB2002B01DA06F002FC244B03361E803F
:10542000F8E6534652461B6806331360029B002B76
:1054300001D005F0AFFB0B98059B1843244B188057
:10544000E8E66A465346127C1B6852B2002A01DA2B
:1054500006F079FC524605331360DBE653465246AC
:105460001B68039D0B331360A81E194B80B2E1B279
:105470001880FBF795FE681E210A80B2FBF790FEAC
:1054800030230A4A1380C5E60C2500208806002038
:105490002C2500208C2400201C25002054250020D1
:1054A000CAD8012074250020C3D80120C4D8012007
:1054B0008505002084050020FFFB000000FCFFFFA5
:1054C000A825002010A0012064250020D8D80120A4
:1054D000C0D80120CBD80120B5250120752500209A
:1054E000B8D801206C250020C2D80120681802100D
:1054F00000C0FFFF68240020202500203025002068
:105500007024002054240020282500205E2500203F
:10551000B82E0120A038000014A001207C24002017
:10552000602400209024002094240020782400206F
:105530008005002001C0FFFFBAD80120B42501205A
:10554000534652461B6807331360002806D0802359
:10555000DB019C4202D2D24BF418A4B26346002B6A
:1055600006D0D04B9C4203D9CF4B9C466444A4B296
:10557000CE4B02361C5D019B23431C00CC4B22000A
:105580001C7057239A4363426341CA4952B2095D72
:105590009B010A431343C84A1370C84B1E8039E667
:1055A000534652461B68039C0B331360A01EC44B2A
:1055B000049980B21880FBF7F3FD601E019980B258
:1055C000FBF7EEFD26E653461B6851461A000A32E9
:1055D0000A606A46127C52B2002A01DB06F066FBC2
:1055E000B64B03361E8015E6534652461B680433FD
:1055F00013600022B34B1A70B34B1A70B34B1A707E
:1056000008E6534652461B680A3313606B461B7C00
:105610005BB2002B01DA06F0D8FBB31C9BB200286A
:1056200001D106F030FE8022D201934202D2A84B73
:10563000F3189BB26246002A01D107F042FD994A55
:10564000934203D9984A91464B449BB2974AD0560D
:1056500080220002D201944205D2914BF418634695
:10566000A4B2002B06D08F4B9C4203D98E4B9C4694
:105670006444A4B28D4B914A1B5D03431380C9E57A
:10568000534652461B680A331360002801D105F0C7
:10569000B9FA80220399D2010B00914203D28D4ABC
:1056A000914649448BB26246002A01D106F0D4FEED
:1056B0007C4A934203D97C4A91464B449BB27B4A35
:1056C000D35C7D4A13708022039BD20101339BB2CD
:1056D000934207D2724A039B914662464B449BB267
:1056E000002A06D06F4A934203D96F4A9446634416
:1056F0009BB26E4A0399D35C6D4A02311370704BB2
:10570000198087E56A465346127C1B6852B2002A0C
:1057100001DA06F013FB524603990B3313604B1C5E
:105720009BB2002801D106F098FD8022D20193425D
:1057300003D25B4A914649448BB26246002A01D1AA
:1057400007F089FC574A934203D9574A91464B4484
:105750009BB2564A0399D25680231202DB0199422A
:1057600001D306F08DFD5B49039B894661464B449E
:105770009BB2002906D04B498B4203D94A498C463B
:1057800063449BB24949CB5C039913434B4A0231B2
:1057900013804B4B19803DE5534652461B68039DD1
:1057A0000B331360A81E464B80B2E1B21880FBF7A2
:1057B000F7FC681E210A80B2FBF7F2FC28233F4A5F
:1057C000138027E5534652461B68073313600028B1
:1057D00006D08023DB019C4202D2314BF418A4B2E4
:1057E0006346002B06D02F4B9C4203D92E4B9C4680
:1057F0006444A4B201982D4B01001B5D2C4A594012
:1058000011700C005722C31A58424341294894434F
:10581000415C62B20A439B011343274A023613706C
:10582000264B1E80F6E453461D68002806D08023D0
:10583000DB019C4202D21A4BF418A4B26346002B3F
:1058400006D0184B9C4203D9174B99464C44A4B23E
:10585000059A0B9B023113430293144BC9B21A5D94
:10586000B31C9CB2154B1C801B4B19701300403BA2
:10587000DBB2BD2B01D904F05EF9184A9B00D35866
:105880009F4653461B6851461A000A320A60049A22
:10589000520701D506F0F3FA084B03361E80B9E42F
:1058A00001C0FFFFFFFB000000FCFFFFA825002058
:1058B000CBD801208805002075250020C4D8012000
:1058C000C0D80120BAD80120B425012054250020D9
:1058D00002C0FFFF00C0FFFFCAD80120681C0210F1
:1058E000534652461B680A331360049B5B0701D47E
:1058F00005F04BF9B31C9BB2002801D106F09CFDCA
:105900008022D201934202D2E74BF3189BB2624647
:10591000002A01D107F0DCFDE44A934203D9E44AAE
:1059200091464B449BB2E34AD05680220002D201FA
:10593000944205D2E04BF4186346A4B2002B06D083
:10594000DA4B9C4203D9DA4B9C466444A4B2D94B4F
:10595000DA4A1B5D034313805CE4534652461B68DE
:1059600004331360D64B0A9A1A70D64B089A1A70F1
:10597000D54B059A1A70D54B099A1A704AE45346CA
:10598000049A1B68520701D505F076FC5246053390
:1059900013603FE4534652461B68039D0B3313606C
:1059A000A81ECB4B80B2E1B21880FBF7F9FB681E52
:1059B000210A80B2FBF7F4FB2023C04A138029E4BC
:1059C000534652461B6804331360029B002B01D0E0
:1059D00004F08EFF0B98059B1843B84B1880FFF717
:1059E00019FC534652461B6807331360002806D043
:1059F0008023DB019C4202D2AF4BF418A4B2634671
:105A0000002B06D0A94B9C4203D9A94B9C46644469
:105A1000A4B2A84B02361C5D019B1C40AD4B22007A
:105A20001C7057239A4353B262426241920113435E
:105A3000A94A125D134310221343A84A13709F4BC7
:105A40001E80FFF7E7FB534652461B68039D0B334E
:105A50001360A81E9E4B80B2E1B21880FBF7A0FB3A
:105A6000681E210A80B2FBF79BFB3823934A138000
:105A7000FFF7D0FB534652461B680A3313600028D9
:105A800001D105F0C5FB8023DB019C4202D28A4B89
:105A9000F418A4B26346002B01D106F010FC834B2E
:105AA0009C4201D807F0FFFC814B824AE3189BB26D
:105AB000D35C8B4A1370B31C9BB28022D2019342F9
:105AC00005D26246784BF3189BB2002A06D0774A7B
:105AD000934203D9764A944663449BB2754A03368F
