:020000041000EA
:1000000000B5324B212058609868022188439860DF
:10001000D860186158612E4B002199600221596106
:100020000121F02299502B49196001219960352056
:1000300000F044F80222904214D00621196600F024
:1000400034F8196E01211966002018661A6600F04E
:100050002CF8196E196E196E052000F02FF8012189
:100060000842F9D1002199601B49196000215960AB
:100070001A491B48016001219960EB211966A021F2
:10008000196600F012F800219960164914480160C1
:100090000121996001BC002800D000471248134993
:1000A000086003C880F30888084703B5996A0420EC
:1000B0000142FBD001200142F8D103BD02B5186610
:1000C0001866FFF7F2FF186E186E02BD00000240BE
:1000D000000000180000070000035F00212200005C
:1000E000F4000018222000A00001001008ED00E03C
:1000F00000000000000000000000000074B24E7A12
:1001000000200420F7010010C3010010C5010010F9
:10011000C1010010C1010010C1010010C101001097
:10012000C1010010C1010010C1010010C701001081
:10013000C1010010C1010010C9010010CB01001065
:10014000CD010010CD010010CD010010CD01001037
:10015000CD010010CD010010CD010010CD01001027
:10016000CD010010CD010010CD010010CD01001017
:10017000CD010010CD010010CD010010CD01001007
:10018000CD010010CD010010CD010010CD010010F7
:10019000CD010010CD010010CD010010CD010010E7
:1001A000CD010010CD010010CD010010CD010010D7
:1001B000CD010010CD010010CD010010CD010010C7
:1001C00000BE00BE00BE00BE00BE00BEEFF3058054
:1001D000103800BEF2EB88715041021074410210D9
:1001E0003402001090A31AE700201F49086006C8D7
:1001F00081F3088810471D48006800282FD10DA4FE
:100200000ECC002902D000F012F8F9E71849194A7B
:10021000002000E001C19142FCD1174988471749ED
:1002200088471749884700BEFDE701C901C29A42C5
:10023000FBD3704774410210C0000020481000201A
:10024000FC5002100000042000000420FC500210AA
:10025000001004200010042000000000704709482E
:1002600016F094FB0047000008ED00E0000000D00D
:100270004810002094DA0120795101100D06011078
:10028000A15201105756000006005250ABB3605304
:10029000E031021006005250861C0302F0310210B9
:1002A000060052505422A29DFC310210050052500B
:1002B000DE65F468FC500210F8B5C0460448054BF2
:1002C00010B5834203D0044B002B00D0984710BDDB
:1002D0004810002048100020000000000648074990
:1002E000091A8B10C90FC91810B5491003D0044B57
:1002F000002B00D0984710BD481000204810002067
:100300000000000010B5074C2378002B09D1FFF73F
:10031000D5FF054B002B02D0044800E000BF0123AD
:10032000237010BD7018002000000000200E021085
:10033000054B10B5002B03D00449054800E000BF71
:10034000FFF7CCFF10BDC04600000000741800206D
:10035000200E0210F0B54546DE4657464E46E0B543
:10036000904B05001B688DB09846002B00DCEAE03E
:100370008D4B8E4F18683C68002806D08C4912F0CF
:100380002DFD061E00D0ECE03C688A4B8A481978A7
:100390008A4B8B4EC51830239C46B4446346059364
:1003A00060239C46B4446346069390239C46B44421
:1003B00063460793C0239C46B44463460893F023E6
:1003C0009C46B4446346099390235B009C46B44426
:1003D00063460093A8235B009C46B44463460193A4
:1003E000784B9C46B44463460293774B9C46B44496
:1003F00063460393754B9A46754BB2449946754BC9
:10040000B1449846744BB0449C46744BB444F718BE
:10041000734B3A009B46B3445B46049333004F460C
:10042000564691469A4600230A960B97EA5C002AA4
:1004300024D0D2005218A65CA218B3465F46029E92
:10044000F7545678B3465F46039EF75496780A9F52
:10045000FE54D6780B9FFE541679B34646465F4647
:10046000F7545679B34666465F46F7549679B346D5
:100470004E465F46F754D279049EF254C25C002A7D
:1004800028D0D2005218A65CA218B34656465F4642
:10049000F7545678B3465F46059EF7549678B346B0
:1004A0005F46069EF754D678B3465F46079EF754DC
:1004B0001679B3465F46089EF7545679B3465F46B1
:1004C000099EF7549679B3465F46009EF754D27959
:1004D000019EF2540133202BA8D16133FF339B4698
:1004E000059B0A9E5B440593069B0B9F5B4406930A
:1004F000079B20305B440793089B20355B4408939F
:10050000099BDA445B440993009B5E445B4400937F
:10051000019B5F445B440193029BD8445B4402937C
:10052000039BDC445B440393049BD9445B440493E6
:100530002C4B834200D076E70DB03CBC90469946E8
:10054000A246AB46F0BD184B184E18683468002818
:1005500000D11AE7164912F041FC051E12D1346889
:1005600013E7414629400022C90212F06DFC8021A8
:1005700032002000090112F04FFC300012F05CFC48
:100580003C6802E70022002112F05EFC80212A0074
:100590002000090112F040FC280012F04DFC3468E4
:1005A000F3E6C04678190020402500205CD80120E1
:1005B000200E0210FE2400203829012020FCFFFF1D
:1005C0002D67012080D1FFFFB0D1FFFFE0D1FFFFF9
:1005D00010D2FFFF40D2FFFF70D2FFFFA0D2FFFF7B
:1005E000D0D2FFFF382C0120F0B5DE4657464E46EC
:1005F0004546E0B5634C89B0FF212000624A17F000
:1006000097F9624B62489C46A44463460393614B4E
:1006100061499C46A44463460193604B9C46A444B4
:10062000634602935E4B9C46A444634604935D4B31
:100630009C46A444634605935B4B99465B4BA1449F
:1006400098465B4BA0449C4600230693C0239B0026
:100650000793584BA4449A462024069D079A2B00E2
:10066000551BC2189346C25C212A53D05A462126F4
:10067000167056463668504AB3468426127876007D
:100680005A44B34693445E463678B3465F46039E6B
:10069000F7540A26FF36B34693445E463678B3468F
:1006A0005F46019EF75485267600B34693445E4626
:1006B0003678B3465F46029EF7540C26FF36B346A3
:1006C00093445E463678B3465F46049EF7548626CA
:1006D0007600B34693445E463678B3465F46059E41
:1006E000F7540E26FF36B34693445E463678B3463B
:1006F0004E465F46F75487267600B34693445E46DF
:1007000036781032B34646465F46F7546646FF32A7
:100710001278F2540F260A68D6540A68E136D218C5
:10072000013356559C429CD1079B069A2033079370
:10073000039B20326133FF330393019B06926133A5
:10074000FF330193029B20346133FF330293049BF8
:100750006133FF330493059B6133FF330593B0236B
:100760005B009B46A133FF33D944D844DC449A4212
:1007700000D072E709B03CBC90469946A246AB4611
:10078000F0BDC046582E0120A0380000550A0000D8
:1007900058250120850A000054D80120B50A000020
:1007A000E50A0000150B0000450B0000750B00006A
:1007B000A50B00005CD80120FE240020F8B54546BA
:1007C000DE4657464E46E0B51500092A67DD632A26
:1007D00000DCBFE0FA239B009A4200DAB2E05F4BF4
:1007E0009A4200DCB8E05E4B9A4200DCAEE05D4B22
:1007F0009A4200DCA8E05C4A0823954200DCA7E0AE
:100800005A4A4E0117685A4A36181278013E9346E2
:10081000584AF618B618584A4C0094466418E40131
:1008200024186444E418554BE41830239A463033B6
:1008300099463033984600E005000A21280016F05A
:10084000D3F833783031C9B28B421AD05246317066
:10085000C90059447B5C791823704B78A3544A46ED
:100860008B78A3544246CB78A354C0220B79A3546F
:100870004B793032A3548B793032A354CB79303258
:10088000A3540A21280016F0AFF8013E013C092DBF
:10089000D2DC3CBC90469946A246AB46F8BD002A45
:1008A0004BD1344A4B011B18D45C302CF1D030248E
:1008B000D4542E4B4C001A682D4B64181B78E4015D
:1008C000D3181A0081322418FF322C4815782C4A8C
:1008D0000019821815701A008232FF321178294AE5
:1008E000821811701A008332FF321178264A82185A
:1008F00011701A008432FF321178244A8218117064
:100900001A008532FF321178214A821811701A00BC
:100910008632FF3211781F4A821811701A0087320E
:10092000FF3211781C4A8833821811701B4AFF333A
:1009300094461B7860440370ABE70123002D00DD73
:100940005EE7A6E703235BE7062359E7052357E79E
:10095000013B55E7022353E7042351E70F2700002B
:100960009F8601003F420F007F9698005CD80120CF
:10097000FE24002058250120540A0000582E012092
:10098000550A0000850A0000B50A0000E50A0000CB
:10099000150B0000450B0000750B0000A50B0000B7
:1009A00010B50F2A4AD8D34B92009B589F46D24A83
:1009B0004B011B18D45C442C40D04424D4544B002D
:1009C0005918CE4BC9011A68CD4B08181B78CD4970
:1009D000D318882292009A181478CB4A08188218E3
:1009E0001470CA4A9A181178C94A82181170C94AF3
:1009F0009A181178C84A82181170C84A9A18117842
:100A0000C74A82181170892292009A181178C54A33
:100A100082181170C44A9A181178C44A8218117049
:100A2000C34A9A181178C34A82181170C24A944670
:100A30006344C24A1B7894466044037010BDAE4ABA
:100A40004B011B18D45C452CF8D04524D4544B00E2
:100A50005918AA4BC9011A68A94B08181B78A9494B
:100A6000D3188A2292009A181478A74A0818821874
:100A70001470B34A9A181178A54A82181170B14AB5
:100A80009A181178A44A82181170AF4A9A181178EE
:100A9000A34A821811708B2292009A181178A14AE9
:100AA00082181170A94A9A181178A04A82181170F8
:100AB000A74A9A1811789F4A82181170A54AB6E77A
:100AC0008D4A4B011B18D45C462CB7D04624D45415
:100AD0004B005918894BC9011A68894B08181B78B3
:100AE0008849D3188C2292009A181478864A0818DC
:100AF00082181470984A9A181178854A82181170D1
:100B0000964A9A181178844A82181170944A9A1851
:100B10001178834A821811708D2292009A181178E8
:100B2000804A821811708F4A9A1811787F4A821869
:100B300011708D4A9A1811787E4A821811708B4A6A
:100B400075E76D4A4B011B18D45C302C00D175E75A
:100B50003024D4544B005918684BC9011A68684BAB
:100B600008181B786749D3181A008132FF321478AD
:100B7000654A0818821814701A008232FF32117800
:100B8000634A821811701A008332FF321178624A68
:100B9000821811701A008432FF321178604A82186C
:100BA00011701A008532FF3211785E4A8218117076
:100BB0001A008632FF3211785C4A821811701A00CE
:100BC0008732FF3211785B4A883382181170FF3305
:100BD0002FE7494A4B011B18D45C312C00D12DE77B
:100BE0003124D4544B005918444BC9011A68444B62
:100BF00008181B784349D3181A008932FF32147839
:100C0000414A0818821814701A008A32FF3211788B
:100C10003F4A821811701A008B32FF3211783E4A17
:100C2000821811701A008C32FF3211783C4A8218F7
:100C300011701A008D32FF3211783A4A8218117001
:100C40001A008E32FF321178384A821811701A0059
:100C50008F32FF321178374A903382181170FF3388
:100C6000E7E6254A4B011B18D45C322C00D1E5E69F
:100C70003224D4544B005918204BC9011A68204B18
:100C800008181B781F49D3181A009132FF321478C4
:100C90001D4A0818821814701A009232FF32117817
:100CA0001B4A821811701A009332FF3211781A4AC7
:100CB000821811701A009432FF321178184A821883
:100CC00011701A009532FF321178164A821811708D
:100CD0001A009632FF321178144A821811701A00E5
:100CE0009732FF321178134A983382181170FF330C
:100CF0009FE6C046240E0210582501205CD8012032
:100D0000FE240020582E0120550A00002102000078
:100D1000850A000022020000B50A0000230200003C
:100D2000E50A0000150B000025020000450B00003D
:100D300026020000750B000027020000A50B000032
:100D4000290200002A0200002B0200002D020000F0
:100D50002E0200002F0200003102000032020000CB
:100D600033020000350200003602000037020000A6
:100D7000D74A4B011B18D45C332C00D15EE63324D8
:100D8000D4544B005918D34BC9011A68D24B0818D8
:100D90001B78D249D3181A009932FF321478D04AFE
:100DA0000818821814701A009A32FF321178CD4A4E
:100DB000821811701A009B32FF321178CA4A8218C9
:100DC00011701A009C32FF321178C84A82181170D3
:100DD0001A009D32FF321178C54A821811701A002C
:100DE0009E32FF321178C34A821811701A009F3266
:100DF000FF321178C04AA03382181170FF3318E611
:100E0000B34A4B011B18D45C342C00D116E63424B1
:100E1000D4544B005918AF4BC9011A68AE4B08188F
:100E20001B78AE49D3181A00A132FF321478AC4AAD
:100E30000818821814701A00A232FF321178A94AD9
:100E4000821811701A00A332FF321178A64A821854
:100E500011701A00A432FF321178A44A821811705E
:100E60001A00A532FF321178A14A821811701A00B7
:100E7000A632FF3211789F4A821811701A00A732E9
:100E8000FF3211789C4AA83382181170FF33D0E5E5
:100E90008F4A4B011B18D45C352C00D1CEE535248C
:100EA000D4544B0059188B4BC9011A688A4B081847
:100EB0001B788A49D3181A00A932FF321478884A5D
:100EC0000818821814701A00AA32FF321178854A65
:100ED000821811701A00AB32FF321178824A8218E0
:100EE00011701A00AC32FF321178804A82181170EA
:100EF0001A00AD32FF3211787D4A821811701A0043
:100F0000AE32FF3211787B4A821811701A00AF326C
:100F1000FF321178784AB03382181170FF3388E5B8
:100F20006B4A4B011B18D45C362C00D186E5362465
:100F3000D4544B005918674BC9011A68664B0818FE
:100F40001B786649D3181A00B132FF321478644A0C
:100F50000818821814701A00B232FF321178614AF0
:100F6000821811701A00B332FF3211785E4A82186B
:100F700011701A00B432FF3211785C4A8218117075
:100F80001A00B532FF321178594A821811701A00CE
:100F9000B632FF321178574A821811701A00B732F0
:100FA000FF321178544AB83382181170FF3340E58C
:100FB000474A4B011B18D45C372C00D13EE537243F
:100FC000D4544B005918434BC9011A68424B0818B6
:100FD0001B784249D3181A00B932FF321478404ABC
:100FE0000818821814701A00BA32FF3211783D4A7C
:100FF000821811701A00BB32FF3211783A4A8218F7
:1010000011701A00BC32FF321178384A8218117000
:101010001A00BD32FF321178354A821811701A0059
:10102000BE32FF321178334A821811701A00BF3273
:10103000FF321178304AC03382181170FF33F8E460
:10104000234A4B011B18D45C382C00D1F6E4382419
:10105000D4544B0059181F4BC9011A681E4B08186D
:101060001B781E49D3181A00C132FF3214781C4A6B
:101070000818821814701A00C232FF321178194A07
:10108000821811701A00C332FF321178164A821882
:1010900011701A00C432FF321178144A821811708C
:1010A0001A00C532FF321178114A821811701A00E5
:1010B000C632FF3211780F4A821811701A00C732F7
:1010C000FF3211780C4AC83382181170FF33B0E434
:1010D000582501205CD80120FE240020582E012034
:1010E000550A0000850A0000B50A0000E50A000064
:1010F000150B0000450B0000750B0000894A4B01E1
:101100001B18D45C392C00D198E43924D4544B00FA
:101110005918854BC9011A68844B08181B788449F3
:10112000D3181A00C932FF321478824A081882187C
:1011300014701A00CA32FF3211787F4A8218117077
:101140001A00CB32FF3211787C4A821811701A00D3
:10115000CC32FF3211787A4A821811701A00CD32DF
:10116000FF321178774A821811701A00CE32FF329E
:101170001178754A821811701A00CF32FF32117837
:10118000724AD03382181170FF3352E4654A4B0122
:101190001B18D45C412C00D150E44124D4544B00A2
:1011A0005918614BC9011A68604B08181B786049CF
:1011B000D318822292009A1814785E4A081882186E
:1011C0001470634A9A1811785B4A82181170614A48
:1011D0009A181178594A821811705F4A9A18117832
:1011E000574A82181170832292009A181178554A32
:1011F00082181170594A9A181178534A821811703E
:10120000574A9A181178514A82181170554AFFF7B7
:101210000EFC444A4B011B18D45C422C01D1FFF751
:101220000DFC4224D4544B0059183F4BC9011A6895
:101230003E4B08181B783E49D318842292009A1816
:1012400014783C4A081882181470474A9A18117882
:10125000394A82181170454A9A181178374A82180B
:101260001170434A9A181178354A821811708522F4
:1012700092009A181178334A821811703D4A9A18D0
:101280001178314A821811703B4A9A1811782F4A06
:1012900082181170394AFFF7CAFB224A4B011B180A
:1012A000D45C432C01D1FFF7C9FB4324D4544B0039
:1012B00059181D4BC9011A681C4B08181B781C498A
:1012C000D318862292009A1814781A4A081882189D
:1012D00014702B4A9A181178174A82181170294AEB
:1012E0009A181178154A82181170274A9A1811789D
:1012F000134A82181170872292009A181178114AA5
:1013000082181170214A9A1811780F4A82181170A8
:101310001F4A9A1811780D4A821811701D4AFFF75A
:1013200086FBC046582501205CD80120FE24002001
:10133000582E0120550A0000850A0000B50A000059
:10134000E50A0000150B0000450B0000750B0000BE
:10135000090200000A0200000B0200000D0200005A
:101360000E0200000F020000110200001202000035
:101370001302000015020000160200001702000010
:10138000190200001A0200001B0200001D020000EA
:101390001E0200001F02000070B5794D36212E7824
:1013A000002032110F24FFF7FBFA32003621012012
:1013B0002240FFF7F5FA6E78362132110220FFF74E
:1013C000EFFA3200362103202240FFF7E9FAAE7827
:1013D000362132110420FFF7E3FA320036210520CE
:1013E0002240FFF7DDFAEE78362132110620FFF7B2
:1013F000D7FA3200362107202240FFF7D1FA2E79A2
:10140000362132110820FFF7CBFA320036210920AD
:101410002240FFF7C5FA6E79362132110A20FFF714
:10142000BFFA320036210B202240FFF7B9FAAE791D
:1014300036210C203211FFF7B3FA320036210D208D
:101440002240FFF7ADFAED7936210E202A11FFF781
:10145000A7FA220036210F202A40FFF7A1FA494BB4
:101460001B78002B00D087E0BE255F20AD00DA217D
:10147000454AC900545C84421FD0444B50541968FB
:10148000434B44481B78444C5B19CD5CCB18055545
:101490005C78424944549C7841494454DC78414941
:1014A00044541C79404944545C79404944549C79E3
:1014B0003F494454D9793F4BC1543F4B1B78002BD3
:1014C00056D08C2523206D003C49545C84421FD0AB
:1014D0002E4B505419682E4B2E481B78384C5B19F4
:1014E000CD5CCB1805555C78364944549C78364918
:1014F0004454DC78354944541C79354944545C796A
:10150000344944549C7934494454D979334BC154B7
:10151000334B1B78002B27D08C2523206D003149BD
:10152000545C84421FD0194B50541A68184B194907
:101530001B782D485B19D45CD3180C5458782B4A6F
:10154000885498782A4A8854D8782A4A885418792E
:10155000294A88545879294A88549879284A8854BD
:10156000DA79284BCA5470BDBE255F20AD00D6E79E
:10157000BE255F20AD00A7E78C2523206D0076E710
:1015800084D80120F6240020582501205CD80120B1
:10159000FE240020582E0120655B0000955B0000B2
:1015A000C55B0000F55B0000255C0000555C000099
:1015B000855C0000B55C0000F9240020D106000025
:1015C000665B0000965B0000C65B0000F65B0000F7
:1015D000265C0000565C0000865C0000B65C0000E3
:1015E000FA240020D2060000675B0000975B000031
:1015F000C75B0000F75B0000275C0000575C000041
:10160000875C0000B75C000070B5534B1B78002B63
:1016100047D08023DB01984243D2504B9C46504B2D
:1016200060441B7880B2002B06D04E4B984203D901
:101630004D4B9C46604480B24C4A4D4B94461B68CF
:10164000634483422CDA4B4B19544B4B1B78002BD1
:1016500030D0444B98422DD9484B984210D81F2285
:10166000474BC5181300EC172340E40E5B192D19E6
:101670002A40121B434C5B1124685B01E318995408
:10168000414B1B78002B0BD0404B1B68834207DC7F
:101690003F4A9A18824203DBC01A3E4B1B6819541A
:1016A00070BD2F4B1B78002B51D1304B9842C3D8C3
:1016B000304B19548023C0221B01C3189BB29200E7
:1016C0009342DDD21F22344BC518EB17DE0E1340B8
:1016D000AC195B1914405B11A41B304D5A0112194F
:1016E000AE5C8E42CCD0A9545A00D318DB012C4AF0
:1016F0001C19284B12781D68CB009A18294BAE5C38
:101700001B19294CAA181C192670284C55781C192D
:101710002570274C95781C192570264CD5781C19F6
:101720002570254C15791C192570244C55791C19E8
:101730002570234C95791C192570224CD279A4462A
:1017400063441A70104B1B78002B9DD1A8E7054B02
:101750009842AAD96CE7C0468C05002000C0FFFF64
:1017600084050020FFFB000000FCFFFFFFBF00001E
:10177000642400204825002000250020FFFE0000F2
:101780000004FFFF54D80120FB240020880500201E
:10179000FF0700005CD801200008FFFF582501204A
:1017A000FE240020582E0120550A0000850A000062
:1017B000B50A0000E50A0000150B0000450B00000B
:1017C000750B0000A50B0000F0B5C64600B50C0077
:1017D0004549050009781E0000293DD1022A3FD065
:1017E000022A16D8002A5ED0404F3B78002B67D0E3
:1017F0003F49F6000A783F4B5000A4192D020132F0
:101800006419D2B2C452132A4AD80A7004BC904652
:10181000F0BD032AECD1384B98461B78002B42D1FF
:10182000324F3B78002B59D0002309220421FB20A2
:10183000FFF7CAFF012309220421FB20FFF7C4FFA1
:10184000012309220021FE20FFF7BEFF01234246AB
:10185000137000233B70CBE7022ADCD0032ABFD1F0
:10186000254B98461B78002B1DD0204F3B78002B32
:101870002ED0002309220421FB20FFF7A5FF01231E
:1018800009220421FB20FFF79FFF012309220021E9
:10189000FE20FFF799FF002342463B701370A7E735
:1018A00000230B70B2E7114F3B78002BA0D001232F
:1018B00009220021FE20FFF787FF00233B7097E7F6
:1018C00009220021FE20FFF77FFF01233B708FE7F5
:1018D00009220021FE20FFF777FFCAE70922002135
:1018E000FE20FFF771FF9FE7F6240020F924002077
:1018F000F724002018250020FA240020F8B5DE4641
:1019000057464E464546E0B5CD4B0220DA790421D4
:1019100090461600012744461040114008223E40E0
:10192000B3462240240700D097E0C64A19781078C1
:10193000C54D04004C402C700024884205D08842DC
:1019400064416442BC4301341170597850780E00F0
:1019500046406E70814203D000D807E301345170D5
:10196000997890780E004640AE70814203D000D83E
:1019700002E301349170D978D0780E004640EE70C1
:10198000814203D000D8FAE20134D170197910797C
:101990000E0046402E71814203D000D8E9E20134A6
:1019A000117151795B79080058406871994200D0F3
:1019B000CEE0002C00D1D2E0002300206E78297800
:1019C00032068018594100232A79AE7812184B410B
:1019D0000021300412184B410027E9780E02B61896
:1019E0005F4180235B039E4201D101F02EF8002F5E
:1019F00000D02FE19E4200D92CE18023DB009E42E3
:101A000001D101F0E4F900D8C5E280235B029E42D7
:101A100001D100F0D4FC00D856E18023DB029E42C5
:101A200000D1EAE280231B039E4200D078E1002F20
:101A300000D075E16922382549234146490600D482
:101A4000A2E2824B1B78002B00D0F6E07A2D00D961
:101A5000F3E07F4AAB00D3589F46002A00D186E0CE
:101A6000002900D009E2DA78002801D000F036FC25
:101A7000002E01D000F07CFF4020197802430F00B7
:101A80009446704A704D147867402F70A14201D07F
:101A900001F07DF900244021604608435978D87050
:101AA0000F008446507847406F70814201D101F0A9
:101AB0002DF9814201D801F0A0F901345170594645
:101AC000002901D101F022F940211878084318704B
:101AD00060460843C1B2D9708C46997890780F005F
:101AE0004740AF70814201D001F01CF940271978BE
:101AF0003943197061463943C9B20F00D970D078A3
:101B00004740EF70814201D001F020F940201F785A
:101B100007430843C1B21879D9708C4601001F7081
:101B2000177979402971B84201D001F025F9402098
:101B30001978014319704021604608430100D970AB
:101B40005B7951791800484068718B4200D130E7C9
:101B50008B4266D901345371002C00D02CE700254C
:101B600028003CBC90469946A246AB46F8BD0029E9
:101B700000D018E1002800D04AE31978002E01D0E7
:101B800000F02DFF08002F4A2F4D177800247840D1
:101B90002870B94201D101F003F800208F42404182
:101BA00001244042044358461170002801D100F03E
:101BB000F7FF4020014319705078597807004F40D3
:101BC0006F70884201D000F0F2FF40201978014385
:101BD00019709078997807004F40AF70884201D013
:101BE00000F0F6FF4020197801431970D978D078B9
:101BF0000F004740EF70814201D000F0FAFF402013
:101C0000197801431970197910790F0047402F7125
:101C1000814201D001F000F8402019780143197089
:101C2000BFE6013C537197E703225F2D00DC013AC8
:101C30000021FB20E30FFFF7C7FD002C90DC8EE7AF
:101C400084D801206CD801209C9F0120FF24002013
:101C5000640E02108023DB059E4201D101F0AFF833
:101C6000002F01D19E420CD9002E00D1D4E1082FC3
:101C70003AD9002E00D187E00025002C00DD6FE767
:101C80006DE78023DB049E4200D19DE30ED98023C3
:101C90005B059E4200D1ACE180239B059E4235D17D
:101CA000002F33D1772232255723C6E680235B04E9
:101CB0009E4200D1A8E13DD980239B049E42DBD106
:101CC0007A2228255A23B8E680239B019E4200D120
:101CD0009EE145D98023DB019E42CDD1042304251A
:101CE000002F37D00025C8E7002EC5D1022F01D123
:101CF00001F0C0F8002EBFD120232025042F29D0C9
:101D00000D230D25012F25D00025B6E780231B05C7
:101D10009E42B1D1002FAFD16F2239254F238CE6DF
:101D200080239B029E42A7D1002FA5D1782229258E
:101D3000582382E680239B039E4203D165223325EC
:101D400045237AE68023DB039E4295D103230325B6
:101D5000002F91D14246520600D472E61D0070E673
:101D600080231B019E4203D175223725552364E64B
:101D700080235B019E4200D07EE7002F00D07BE7EE
:101D800066222425462358E6202F01D100F00AFCC4
:101D900001230125402FDDD0102F00D06CE76122F8
:101DA0002125412349E6002800D03CE19A78002E05
:101DB00001D000F025FE402002439446D54A1F780A
:101DC0001478D54D210079402970BC4201D000F033
:101DD000EAFF0024402160460843597898700F00BC
:101DE0008446507847406F70814201D100F048FF2F
:101DF000814201D801F006F801345170594600299A
:101E000001D100F03DFF402118780843187060466A
:101E10000843C1B29970907807004F40AF70884274
:101E200001D000F038FF4027187839433843C9B251
:101E300018709970D778D8783E004640EE70874287
:101E400001D000F03CFF40201F7807430843C1B297
:101E5000187999708C4601001F70177979402971A3
:101E6000B84201D000F042FF4020197801431970B8
:101E7000402160460843987093E5002800D04FE168
:101E8000DA789978002E03D040241878204318700F
:101E900040200243D7B21A780143944664469D4AD3
:101EA0009D4D1078C9B244402C700024844506D062
:101EB0006646B042644160420124167004435846AD
:101EC000002801D000F022FD9970DF705678587814
:101ED000B44646406E70604501D100F0A9FE6045F1
:101EE00001D800F099FF013450705846002801D104
:101EF00000F09EFE4026B44666461878997030433E
:101F00000E001870DF7090784640AE70814201D0AC
:101F100000F096FE4026B446664618789970304325
:101F20003E001870DF70D0784640EE70874201D0D6
:101F300000F09AFE4026B446664618783043187082
:101F400016791879B44646402E71604504D001D800
:101F500000F085FF013410715846002803D0402658
:101F60001878304318709970DF70E9E5013C5170C2
:101F7000F6E4013C117114E5013C9170FBE4013C75
:101F8000D17003E5712251231D004346DB0600D4C6
:101F900057E5150055E5202E18D8002E00D16BE628
:101FA00020220023300039001EF0FAFE0130012803
:101FB00000D961E6594BB6009B599F4674223525DE
:101FC00054233AE579223625592336E580235B00F0
:101FD0009E420AD0DB189E4200D04DE6002F00D072
:101FE0004AE663223F25432327E56A2226254A2322
:101FF00023E57322402553231FE5002F00D011E570
:102000006D223E254D2318E56C222D254C2314E529
:1020100072223425522310E5082F00D027E67022C3
:102020003025502309E599785F78002E03D04020B1
:102030001A7802431A704022174311431A78364D1A
:1020400094466446334AFFB21078C9B244402C70BB
:102050000024844506D06646B042644160420124B3
:10206000167004435846002801D000F063FC5F70EE
:102070009970507806007E406E70B84201D100F031
:1020800066FD874201D800F0AFFE01345846577014
:10209000002801D100F05BFD4026B4466646187862
:1020A0005F7030430E001870997090784640AE70A3
:1020B000814201D000F053FD4026B44666461878B0
:1020C0005F70304318709970D678D878B44646401F
:1020D000EE70844501D000F057FD4026B4466646B8
:1020E00018783043187016791879B44646402E7126
:1020F000604504D001D800F08AFE013410715846C2
:10210000002803D040261878304318705F7099700B
:1021100047E4C0466CD801209C9F0120501002105B
:10212000D8789F785978002E03D040241A7822431B
:102130001A7040221143C9B28C46197817430C001B
:102140000243D2B29146E74AE74D1078FFB24440CD
:102150002C700024814205D0884280410234044022
:10216000013C11705846002802D0402001431970EC
:1021700060465178484068708C4505D001D800F021
:1021800068FE0134614651705946002903D0402051
:10219000197801431970380091784840A8708F422F
:1021A00004D001D800F062FE01349770594600292E
:1021B00003D040201978014319704846D17848402F
:1021C000E870894505D001D800F040FE0134494649
:1021D000D1705946002903D0402019780143197065
:1021E000197910790E0046402E71814204D001D831
:1021F00000F038FE013411715946002903D0402007
:1022000019780143197061469F705970494696E4E8
:102210005978002E00D0D0E34022187811430400F2
:10222000B04AB14D17787C402C700024B84201D1DF
:1022300000F039FC8742BF4102245E463C40013C2D
:102240001070002E01D100F02EFC40273943384396
:10225000C9B218705970507807004F406F708842AB
:1022600001D000F029FC40201F7801430743C9B288
:102270001F705970977898783E004640AE7087423C
:1022800001D000F02DFC40201F7801430743C9B264
:102290001F705970D778D8783E004640EE7087425C
:1022A00001D000F031FC40201F7801430743C9B240
:1022B00059701F7017798C4639001879414029717F
:1022C000874201D000F037FC402019780143197093
:1022D0004021604608435870FFF763FB5978002E91
:1022E00003D0402418782043187040242243D7B2EA
:1022F0001A782143944664467A4AC8B211787A4DD6
:102300004C402C7000248C4506D06646B142644196
:102310006142012416700C435946002900D019E38C
:1023200006005870DF7051784E406E70884200D1C0
:1023300094E3884201D800F078FD0134594650708A
:10234000002900D18AE34026B446664619785870C1
:1023500031431970DF7096789978B4464E40AE706C
:10236000614500D083E34026B4466646197858702C
:1023700031433E001970DF70D1784E40EE708F42CD
:1023800000D086E34026B44666461978314319707A
:1023900016791979B4464E402E71614504D001D8A2
:1023A00000F05AFD013411715946002903D040262E
:1023B0001978314319705870DF70FFF7F2FA6B2209
:1023C0002A254B23FFF739FB2C232E25C2E4672255
:1023D00025254723FFF731FB622222254223FFF701
:1023E0002CFB76222F255623FFF727FB68222B256F
:1023F0004823FFF722FB01220021FD20E30FFFF716
:10240000E3F91AE40122FD201100E30FFFF7DCF9E4
:1024100013E401220021FB20E30FFFF7D5F9FFF7BA
:102420000CFC0122FE201100E30FFFF7CDF9FFF7AE
:1024300004FC0022FE201100E30FFFF7C5F9082578
:10244000FFF7FBFB0022BF201100E30FFFF7BCF9F1
:10245000FFF7F3FB4346DB0601D400F013FD234BEB
:102460001E251B78002B01D0FFF7E7FB002C01DCB9
:10247000FFF775FB01231E4A1E2511785B1A1370A6
:10248000FFF76EFB00227F201100E30FFFF79CF99E
:10249000FFF7D3FB01220021F720E30FFFF794F9A8
:1024A000FFF7CBFB0122F7201100E30FFFF78CF9B8
:1024B000FFF7C3FB01220221F720E30FFFF784F9A6
:1024C000FFF7BBFB01220321F720E30FFFF77CF9A5
:1024D000FFF7B3FB01220421F720E30FFFF774F9A4
:1024E000FFF7ABFB6CD801209C9F0120FF2400204C
:1024F000F624002001220421EF20E30FFFF764F906
:10250000FFF79BFB01220321EF20E30FFFF75CF9AC
:10251000FFF793FB01220221EF20E30FFFF754F9AD
:10252000FFF78BFB0122EF201100E30FFFF74CF9BF
:10253000FFF783FB01220221BF20E30FFFF744F9DD
:10254000FFF77BFB01220421BF20E30FFFF73CF9DB
:10255000FFF773FB002201217F20E30FFFF734F91F
:10256000FFF76BFB01220321BF20E30FFFF72CF9DC
:10257000FFF763FB01227F201100E30FFFF724F92F
:10258000FFF75BFB0122BF201100E30FFFF71CF9EF
:10259000FFF753FB0022EF201100E30FFFF714F9C0
:1025A000FFF74BFB43465B0600D4EBE4E04B1B78A4
:1025B000002B05D10022F7201100E30FFFF704F9EB
:1025C0003125FFF73AFB00220121F720E30FFFF747
:1025D000FBF8FFF732FB00220221F720E30FFFF7A1
:1025E000F3F8FFF72AFB00220321F720E30FFFF7A0
:1025F000EBF8FFF722FB00220421F720E30FFFF79F
:10260000E3F8FFF71AFB00220421EF20E30FFFF7A6
:10261000DBF8FFF712FB00220321EF20E30FFFF7A7
:10262000D3F8FFF70AFB00220221EF20E30FFFF7A8
:10263000CBF8FFF702FB00220121EF20E30FFFF7A9
:10264000C3F8FFF7FAFA01220221FE20E30FFFF799
:10265000BBF8FFF7F2FA01220321FE20E30FFFF798
:10266000B3F8FFF7EAFA012203217F20E30FFFF717
:10267000ABF8FFF7E2FA01220421FE20E30FFFF797
:10268000A3F8FFF7DAFA012202217F20E30FFFF718
:102690009BF8FFF7D2FA012204217F20E30FFFF716
:1026A00093F8FFF7CAFA01220421DF20E30FFFF7B6
:1026B0008BF8FFF7C2FA03225F2D00DC013A0021FC
:1026C000FD20E30FFFF780F8FFF7B7FA03225F2D35
:1026D00000DC013A04217F20E30FFFF775F8FFF7D4
:1026E000ACFA03225F2D00DC013A0321FE20E30F48
:1026F000FFF76AF8FFF7A1FA03225F2D00DC013A29
:102700000221FD20E30FFFF75FF8FFF796FA03229F
:102710005F2D00DC013A0221FB20E30FFFF754F8A4
:10272000FFF78BFA03225F2D00DC013A0321FD2025
:10273000E30FFFF749F8FFF780FA03225F2D00DC73
:10274000013A0421FD20E30FFFF73EF8FFF775FA89
:1027500003225F2D00DC013A0421BF20E30FFFF7C5
:1027600033F8FFF76AFA03225F2D00DC013A0221F9
:10277000DF20E30FFFF728F8FFF75FFA03225F2D52
:1027800000DC013A0321BF20E30FFFF71DF8FFF73C
:1027900054FA03225F2D00DC013A0221BF20E30F2F
:1027A000FFF712F8FFF749FA03225F2D00DC013A28
:1027B0000121BF20E30FFFF707F8FFF73EFA0322DE
:1027C0005F2D00DC013A02217F20E30FFEF7FCFFC2
:1027D000FFF733FA03225F2D00DC013A03217F204B
:1027E000E30FFEF7F1FFFFF728FA03225F2D00DC6D
:1027F000013A0121DF20E30FFEF7E6FFFFF71DFAA4
:1028000003225F2D00DC013A0021DF20E30FFEF7F9
:10281000DBFFFFF712FA03225F2D00DC013A0321F0
:10282000FB20E30FFEF7D0FFFFF707FA03225F2D2F
:1028300000DC013A0121FD20E30FFEF7C5FFFFF7A1
:10284000FCF903225F2D00DC013A0421FB20E30F99
:10285000FEF7BAFFFFF7F1F903225F2D00DC013A22
:102860000321DF20E30FFEF7AFFFFFF7E6F90322B6
:102870005F2D00DC013A0421FE20E30FFEF7A4FFE8
:10288000FFF7DBF903225F2D00DC013A0121FB2079
:10289000E30FFEF799FFFFF7D0F903225F2D00DC6D
:1028A000013A0221FE20E30FFEF78EFFFFF7C5F984
:1028B00003225F2D00DC013A0421DF20E30FFEF745
:1028C00083FFFFF7BAF903225F2D00DC013A0121F3
:1028D000FE20E30FFEF778FFFFF7AFF90122032197
:1028E000DF20E30FFEF770FFFFF7A7F901220221B7
:1028F000DF20E30FFEF768FFFFF79FF90122DF20DB
:102900001100E30FFEF760FFFFF797F940206646DE
:1029100006431E709970DF7056785878B44646406A
:102920006E70604501D1FFF7E5FAFFF7D8FAC046AF
:10293000FF2400204020664606431E703E005F7064
:102940009970507846406E70874201D1FFF7A4FB22
:10295000FFF797FB402166460E431E700600587035
:10296000DF7051784E406E70884200D1EBE4E0E4B5
:1029700040211C780A430C43E1B20800D2B29446CD
:10298000E04A1C701478E04D60402870A14200D0ED
:10299000FDE1002440200143197061460143C9B2A2
:1029A000D9708C46597850780F0047406F7081423B
:1029B00001D1FFF789F8FFF77CF84022187811431E
:1029C0001043D04AD04D177818703C00C0B2444034
:1029D0002C70C9B20024874200D136E42AE4402298
:1029E0001143C84AC84D177819703800C9B2484019
:1029F000002428708F4201D1FFF7DBF8FFF7CDF8F4
:102A000040210A431C78D2B29446BE4A0C43E7B236
:102A10001C701478BC4D210079402970BC4200D054
:102A2000C1E100244020614601430743C9B21F7041
:102A3000997050788C46070059784F406F708842E3
:102A400001D1FFF7E0F9FFF7D3F9002F01D0FFF72D
:102A500001F9642223254423FEF7EFFF5870DF704D
:102A600096789978B4464E40AE70614508D061457D
:102A700000D8DDE1013491705946002900D072E49C
:102A80003E005870DF70D1784E40EE708F4200D11A
:102A90007EE48F4200D8CDE101345946D770002939
:102AA00000D06FE474E4402001430F005970507867
:102AB00047406F70814209D0814200D8BCE10134A7
:102AC00058465170002801D0FFF7CDFB402001434C
:102AD00098785970060097787E40AE70B84209D059
:102AE000B84200D8AAE1013490705846002801D0BD
:102AF000FFF7C9FB40200143D87859700600D7780A
:102B00007E40EE70B84209D0B84200D898E1013456
:102B1000D0705846002801D0FFF7C5FB4020014384
:102B2000597017798C4639001879414029718742CC
:102B300001D1FFF7CDFBB84200D858E10134594626
:102B40001071002901D0FFF7BFFBFFF7C1FB0E009A
:102B50005F70997090784640AE70814209D0814292
:102B600000D83BE1013458469170002801D0FFF7AE
:102B7000A3FA5F709970D678D878B4464640EE7064
:102B8000844501D1FFF7AFFA604500D831E1013447
:102B9000D0705846002801D0FFF79FFAFFF7A3FA3C
:102BA000597850780F0047406F70814209D08142B8
:102BB00000D820E1013451705946002901D0FFF7B7
:102BC00004F8997890780F004740AF70814209D09F
:102BD000814200D836E1013491705946002901D074
:102BE000FFF700F8D978D0780F004740EF708142A6
:102BF00009D0814200D827E10134D170594600291B
:102C000001D0FEF7FCFF197910790F0047402F71B2
:102C1000814201D1FEF7C5FE814200D8FFE00134B8
:102C200011715946002901D0FEF7F6FFFEF7B9FEF3
:102C30000E009970DF7090784640AE70814209D0E6
:102C4000814200D8E6E0013458469170002801D056
:102C5000FFF760F93E009970DF70D0784640EE7063
:102C6000874201D1FFF76CF9874200D8DBE00134DD
:102C70005846D770002801D0FFF75CF9FFF760F9DC
:102C800040216046084398700100907807004F404B
:102C9000AF70884209D0814200D8C2E00134584662
:102CA0009170002801D0FFF7BEF840200143D8788A
:102CB00099700600D7787E40EE70B84209D0B842CD
:102CC00000D889E00134D0705846002801D0FFF7C1
:102CD000BAF840200143997017798C463900187969
:102CE00041402971874201D1FFF7C2F8B84200D8AC
:102CF00086E0013459461071002901D0FFF7B4F87D
:102D0000FFF7B6F86CD801209C9F01204027614650
:102D10003943D9708C46997890780F004740AF704E
:102D2000814208D081425BD9013491705946002913
:102D300001D0FEF7DBFE40216046084301000F0092
:102D4000D870D0784740EF70814208D0814249D98D
:102D500001345846D170002801D0FEF7D7FE40203C
:102D600001431879D9708C4601001779794029718F
:102D7000B84201D1FEF7DFFEB84246D901345946C8
:102D80001071002901D0FEF7D2FEFEF7D4FE02201A
:102D90008C42A44104405846013C1170002800D0E8
:102DA000F8E5FEF778FE0221BC42A4410C405946EA
:102DB000013C1770002900D034E6FFF70BF8002F14
:102DC00001D0FEF751FF02230225FEF7C3FF6E225A
:102DD0003C254E23FEF731FE013C74E7013CC2E680
:102DE000013CA2E7013CB4E7013CFFF74FF9013C8D
:102DF000A5E6013CCCE6013CDDE6013CFEF75EFECB
:102E0000013C77E7013CFEF7F8FF013CB7E7013CE6
:102E1000FFF774F9013C17E7013CFFF765F8013C47
:102E2000FEE6013C3BE7013C22E7013CFFF786FA66
:102E3000013C20E6013C30E6013C41E6013C53E622
:102E4000013C65E6013CC7E6013CD6E6013CFFF7E4
:102E5000BEF9013CFFF796F9013CFFF7A4FA013CEB
:102E6000FFF779F8013C1171FFF7C6F9013C977043
:102E7000FFF79CF943465B0601D4FFF7EBFA1F25E9
:102E8000FEF7DBFE044B1B78002B01D1FFF7D1FAD4
:102E90000825FEF7D2FEC046FF240020F0B5594BAE
:102EA000594C1B78217859488B4228D00268531E10
:102EB000002A01DD0360F0BD0F26554B4A00D25AAF
:102EC000170A3B001640FF2F0AD0DE2F10D93A0018
:102ED0002132D2B21F2A03D84E4D9200AA589746EB
:102EE00000220F2E00D988E04B4DB600AD59AF46F9
:102EF0007F2F1BD0BF2FF3D1484A1278F1E7036828
:102F0000002BD8DD013BD5E7454A1278E9E7454A71
:102F10001278E6E7444A1278E3E7444A1278E0E799
:102F2000434A1278DDE7434A1278DAE7424A1278D8
:102F3000D7E70225AA431500FF2F0FD0DE2B07D9B4
:102F40002133DBB21F2B09D83C4A9B00D3589F4644
:102F50007F2B4FD0BF2B01D1304B1D600131C9B247
:102F6000132943D802232170A4E72D4B1D60F5E7F8
:102F7000304B1D60F2E72E4B1D60EFE72B4B1D60C1
:102F8000ECE7294B1D60E9E7264B1D60E6E740258D
:102F90001543D1E780251543CEE70425AA43150044
:102FA000CAE70825AA431500C6E71025AA4315005D
:102FB000C2E72025AA431500BEE74025AA43150015
:102FC000BAE77F251540B7E701251543B4E7022589
:102FD0001543B1E704251543AEE708251543ABE7D4
:102FE00010251543A8E720251543A5E700232370E6
:102FF00002235FE7104B1D60B0E70125AA431500CF
:103000009AE7C046F7240020F82400204C24002032
:1030100018250020D410021054110210640500205D
:103020007C050020680500206C050020700500204C
:10303000740500207805002060050020941102101E
:103040000300FF20DA0702D4134A126810409A07DF
:1030500002D4124A126810405A0702D4104A126869
:1030600010401A0702D40F4A12681040DA0602D440
:103070000D4A126810409A0602D40C4A1268104099
:103080005A0602D40A4A126810401B0602D4094BA1
:103090001B6818407047C0467C050020780500205A
:1030A00074050020700500206C05002068050020D4
:1030B0006405002060050020F0B5DE4657464E4608
:1030C0004546C020E0B5C0008FB00FF0E9FBC34B10
:1030D0001860802000010FF0E3FB0023C04F802226
:1030E000386003700120BF4912010B5C3C68235417
:1030F00001309042F9D10FF0D3FB0024BA4BBB4E04
:103100001860BB4B30001C60BA4BBB491C60BB4B0A
:103110001C60BB4B1C60BB4B1C60BB4B1C60BB4BA7
:103120001C60BB4B1C600FF059FE051E06D10FB092
:103130003CBC90469946A246AB46F0BD30000FF02D
:103140008FFE060005300FF0ABFB834669200FF0C1
:10315000A7FB2A003100019058460FF05DFE5B4648
:1031600028009C550FF068FE00225B46DA4602926A
:10317000A84A1B78513AFF3A06921F2B01D900F05A
:1031800084FF5146029A50460132013906E016008A
:10319000841801328B5C1F2B00D9F1E0002BF6D193
:1031A0000FF0B2FB01980FF0AFFB914B1B68002BA7
:1031B000BDDD934B1B680093002BB8DD944B8E490B
:1031C00018680FF00BFE041EB1D08D4B00271B6852
:1031D0000026581D00930FF063FB894B22001968ED
:1031E000050000900FF018FE20000FF025FE7E4B2A
:1031F0001B689A4600239946019B4A46191D9C4626
:10320000534605910321DA51009B0391691C0691F5
:10321000995D013D1F2915D8731C04E01A00013384
:10322000E95C1F290FD80029F8D1802304371B013E
:103230009F4200D17BE753464A46DA51009B995D95
:103240001F29E9D932000099002389188A461C00F9
:103250000133C85C9E181F28F9D80194009C8B4646
:10326000A04661464C46101D404481426441029391
:1032700051464B4604944C46059881425C41049863
:10328000039B0443A04660465C46204318404342EB
:10329000434141460B4201D101F0CDFA0823019888
:1032A000834201D301F0C7FA029992468808884602
:1032B00083005946002062460C5814500430834263
:1032C000F9D14346404644460293039B52468B46FF
:1032D000984323421ED00B5C9846634641461954DE
:1032E0000199431C9846884214DA00991C00414415
:1032F000895C02308A46614653460B55019B9845CE
:1033000008DA009B9846804443469B5C9846634697
:10331000414619546346494602981954324B58465F
:103320001B6800219A463B0053440293069B984633
:10333000019B424490469B46D8444446A84603E03D
:1033400089180130844211D0037809011A00303AFB
:10335000D5B2092DF4D91A00413A052A01D901F054
:1033600060FA373B0130C9188442EDD1029B043723
:103370001960802345461B019F4200D05BE7D6E6DB
:103380008246A146721C5244110000929C460022C3
:103390000C00207815000132931901311F28F7D84D
:1033A0000293A0466346AB46162A01DC00F073FE8A
:1033B000711E0391514401220C00174D04E00132AB
:1033C000182A01D100F0C8FEA05CA95C8842F6D0A2
:1033D0000399012251440D00104C26E054D80120DD
:1033E0005CD80120A41B0210989F01201412021027
:1033F00074D80120AC9F0120200E0210102500205F
:10340000482501207CD801200825002040250020E7
:1034100050250120386D0120271202104F12021092
:103420000132142A01D100F040FEA85CA15C884260
:10343000F6D0462B01D000F022FE009B1B78692BB2
:1034400001D000F01CFE53469C19A3786C2B00D0D1
:1034500032E1E378652B00D02EE12279432A00D0B7
:103460002AE16379682B00D026E1A379722B00D082
:1034700022E1E3793D2B00D01EE18021EE4BC90013
:10348000585C432831D05A543968EC4A8C4686211E
:1034900012788900624451180D78E948E9490D54C1
:1034A000E94810180578E9480D54E94810180578DE
:1034B000E8480D54E84810180578E8480D5487206E
:1034C000800010180578E6480D54E6481018057875
:1034D000E5480D54E54810180578E5480D54E548D1
:1034E000844662441078E44A8854E44A995C482946
:1034F00032D0482199543968D04A8C4690211278AC
:103500008900624451180D78DD48CE490D54DD48DC
:1035100010180578DC480D54DC4810180578DC4894
:103520000D54DC4810180578DB480D5491208000BC
:1035300010180578D9480D54D94810180578D9487D
:103540000D54D94810180578D8480D54D8488446E9
:1035500062441078D74A8854D74A995C522932D0AD
:10356000522199543A68B54B9446A4221B78920094
:1035700063449A181078D149B24A5054D049591826
:103580000878D0495054D04959180878CF49505438
:10359000CF4959180878CF495054A52189005918A6
:1035A0000878CD495054CD4959180878CC49505421
:1035B000CC4959180878CC495054CC498C466344BE
:1035C0001978CB4BD1546323019A13700C33537089
:1035D0000D3B93701033D370113B1371323B537119
:1035E0005B46073B03935B46072B47D0002008232D
:1035F00035009C4603000C3506325544AA4243412F
:1036000051461D00019BB44461440A339942404134
:103610001300284303250B431D402B005D425D41F1
:10362000054201D101F0F2F858460838082801D8BF
:1036300001F0ECF80020039B9D08AD000B581350DF
:1036400004308542FAD1039D03212B008B431A00DD
:10365000294213D0534699186346C85C019B9918B8
:103660008871501CA84209DA63465044C05C02329B
:10367000C871AA4202DA5244D35C0B72019800224C
:1036800003005B44013B1A701DF056FA092801D96A
:1036900000F0F0FE974B1A6820210420FDF78EF809
:1036A0004B461B78462B01D000F0E9FC009B1B78B1
:1036B000692B01D000F0E3FCA3786C2B00D0EDE186
:1036C000E378652B00D0E9E122794C2A00D0E5E1CE
:1036D0006379732B00D0E1E1A379742B00D0DDE195
:1036E000E3793D2B00D0D9E18421534BC900585CCC
:1036F0004C2831D05A543968504A8C469821127857
:103700008900624451180D787B484E490D547B481E
:10371000101805787A480D547A48101805787A48B8
:103720000D547A481018057879480D549920800076
:103730001018057877480D547748101805787748A1
:103740000D5477481018057876480D54764884460D
:1037500062441078754A8854754A995C532932D06E
:10376000532199543968354A8C46A621127889002C
:10377000624451180D786F4832490D546E48101844
:1037800005786E480D546E48101805786D480D5434
:103790006D48101805786D480D54A720800010184A
:1037A00005786B480D546B48101805786A480D541D
:1037B0006A48101805786A480D546A48844662447D
:1037C0001078694A8854694A995C542900D1EBE021
:1037D000542199543A68194B9446A8221B789200B8
:1037E00063449A1810786249164A5054614959182E
:1037F0000878614950546149591808786049505413
:1038000060495918087860495054A921890059180D
:1038100008785E4950545E49591808785D495054FB
:103820005D49591808785D4950545D498C46634498
:1038300019785C4BD154B7E058250120FE240020B4
:10384000553A0000582E012019020000853A000068
:103850001A020000B53A00001B020000E53A000021
:10386000153B00001D020000453B00001E02000049
:10387000753B00001F020000A53B00000104000092
:10388000563A000041020000863A00004202000061
:10389000B63A000043020000E63A0000163B000082
:1038A00045020000463B000046020000763B000057
:1038B00047020000A63B000002040000573A000047
:1038C00091020000873A000092020000B73A00001F
:1038D00093020000E73A0000173B00009502000049
:1038E000473B000096020000773B00009702000073
:1038F000A73B000010250020D53B0000610200001E
:10390000053C000062020000353C0000630200003C
:10391000653C0000953C000065020000C53C0000CD
:1039200066020000F53C000067020000253D000033
:1039300021040000D63B000099020000063C000074
:103940009A020000363C00009B020000663C00002A
:10395000963C00009D020000C63C00009E02000054
:10396000F63C00009F020000263D000022040000FB
:10397000D73B0000A1020000073C0000A2020000AB
:10398000373C0000A3020000673C0000973C0000A9
:10399000A5020000C73C0000A6020000F73C0000A2
:1039A000A7020000273D00006323019A13700C3327
:1039B00053700D3B93701033D370113B1371323B36
:1039C00053715B46073B03935B46072B48D00823A4
:1039D00000209C463500019B0C359A1D0300554480
:1039E000AA42434151461D00019BB44461440A333D
:1039F000994240411300284303250B431D402B00EF
:103A00005D425D41054201D100F0F5FE584608389F
:103A1000082801D800F0EFFE0020039B9D08AD00B0
:103A20000B58135004308542FAD1039D03212B001B
:103A30008B431A00294213D0534699186346C85C39
:103A4000019B99188871501C2B00854208DD654642
:103A50005544285C0232C871934201DDAB5C0B72A5
:103A60000198002203005B44013B1A701DF064F8CA
:103A7000092801D900F08BFDEB4B21211B680420A4
:103A80001A000393FCF79AFE4B461B78462B00D096
:103A9000F5E2009B1B78692B00D0F0E2A3786C2B39
:103AA00000D033E1E378652B00D02FE12279522A50
:103AB00000D02BE163796F2B00D027E1A3796D2B28
:103AC00000D023E1E3793D2B00D01FE18821D74BC3
:103AD000C900585C522831D05A543968D44A8C46AF
:103AE000A42112788900624451180D78D148D24936
:103AF0000D54D24810180578D1480D54D1481018EB
:103B00000578D1480D54D14810180578D0480D5487
:103B1000A520800010180578CE480D54CE48101806
:103B20000578CE480D54CE4810180578CD480D5470
:103B3000CD48844662441078CC4A8854CC4A995C7B
:103B40004F2932D04F2199543968B94A8C469E2169
:103B500012788900624451180D78C648B6490D5450
:103B6000C54810180578C5480D54C5481018057883
:103B7000C4480D54C44810180578C4480D549F20FB
:103B8000800010180578C2480D54C24810180578F6
:103B9000C1480D54C14810180578C1480D54C1489A
:103BA000844662441078C04A8854C04A995C4D29C2
:103BB00032D04D2199543A689D4B94469A221B78F5
:103BC000920063449A181078B9499B4A5054B949F5
:103BD00059180878B8495054B84959180878B8495C
:103BE0005054B84959180878B74950549B21890056
:103BF00059180878B5495054B54959180878B54945
:103C00005054B54959180878B4495054B4498C46B1
:103C100063441978B34BD1546323019A13700C3366
:103C200053700D3B93701033D370113B1371323BC3
:103C300053715B46073B03935B46072B48D0082331
:103C400000209C463500019B0C359A1D030055440D
:103C5000AA42434151461D00019BB44461440A33CA
:103C6000994240411300284303250B431D402B007C
:103C70005D425D41054201D100F0B2FD5846083871
:103C8000082801D800F0ACFD0020039B9D08AD0082
:103C90000B58135004308542FAD1039D03212B00A9
:103CA0008B431A00294213D0534699186346C85CC7
:103CB000019B99188871501C2B00A84208DA6546B0
:103CC0005544285C0232C8719A4201DAAB5C0B722F
:103CD0000198002203005B44013B1A701CF02CFF8A
:103CE000092801D900F0ADFC7F4B22211B6804207C
:103CF0001A000393FCF762FD4B461B78462B00D05D
:103D0000BDE1009B1B78692B00D0B8E1A3786C2B38
:103D100000D0B4E1E378652B00D0B0E12279522ADB
:103D200000D0ACE16379612B00D0A8E1A3796D2BC1
:103D300000D0A4E1E3793D2B00D0A0E18C213B4BE6
:103D4000C900585C522831D05A543968384A8C46D8
:103D5000A42112788900624451180C7863483649CE
:103D60000C5436481018047861480C543548101823
:103D7000047860480C543548101804785E480C5498
:103D8000A5208000101804785C480C5432481018A4
:103D900004785B480C5432481018047859480C5485
:103DA0003148844662441078574A8854574A995C8F
:103DB000412932D04121995439681D4A8C468221CB
:103DC00012788900624451180C7851481A490C54F1
:103DD00050481018047850480C5450481018047873
:103DE0004F480C544F48101804784F480C54832007
:103DF0008000101804784D480C544D481018047871
:103E00004C480C544C48101804784C480C544C48FE
:103E10008446624410784B4A88544B4A995C4D2939
:103E200000D1C6E092E0C046482501205825012077
:103E3000FE240020553D0000582E01209102000074
:103E4000853D000092020000B53D00009302000095
:103E5000E53D0000153E000095020000453E0000D3
:103E600096020000753E000097020000A53E00008B
:103E700041040000563D000079020000863D00002C
:103E80007A020000B63D00007B020000E63D000023
:103E9000163E00007D020000463E00007E0200004B
:103EA000763E00007F020000A63E000042040000B3
:103EB000573D000069020000873D00006A020000D3
:103EC000B73D00006B020000E73D0000173E000018
:103ED0006D020000473E00006E020000773E0000C9
:103EE0006F020000A73E000074D80120D53E0000FC
:103EF000053F0000353F0000653F0000953F000092
:103F0000C53F0000F53F00002540000061040000AF
:103F1000D63E000009020000063F00000A02000031
:103F2000363F00000B020000663F0000963F000095
:103F30000D020000C63F00000E020000F63F000028
:103F40000F02000026400000620400004D21995439
:103F50003A68D04B94469A221B78920063449A1890
:103F60001078CD49CD4A5054CD4959180878CD49DB
:103F70005054CD4959180878CC495054CC49591857
:103F80000878CC4950549B21890059180878CA49AF
:103F90005054CA4959180878C9495054C949591840
:103FA0000878C9495054C9498C4663441978C84BAC
:103FB000D1546323019A13700C3353700D3B9370EB
:103FC0001033D370113B1371323B53715B46073B87
:103FD00003935B46072B3FD0002234005346350045
:103FE000160008341819019B0C35991D55440A33E5
:103FF000A94256419842524132430E0003250643DE
:1040000035406E427541154200D1E0E35A46083A08
:10401000082A00D8DBE30022039B9D08AD008658E8
:104020008E500432AA42FAD103211D008B431A009C
:10403000294211D053461919019B895C9818817146
:10404000511CA94208DA5144095D0232C171AA42E9
:1040500002DA5244135D03720198002203005B44AC
:10406000013B1A701CF068FD092800D996E1994BB4
:1040700023211B6804201A000093FCF79FFB434692
:104080001B781F2B01D8FFF77CF8029E32005244A8
:104090009146FFF777F9122A00DD7BE1072A01DD5F
:1040A000FFF7C7F90300FFF768F831005B461331EB
:1040B000122B00D1E1E05346581C002380195144D3
:1040C00058449A00D3180A785B00303AD4B2092CCD
:1040D00000D89B1801318142F3D1002B00D1CCE0F4
:1040E0003B6804969C466B4B00221B786646039304
:1040F00079494323794C01E0192A25D0885C8D1831
:1041000098421CD003982B708446DB006344F05C1B
:10411000F318A0545878724DA8549878714DA8544B
:10412000D878714DA8541879704DA8545879704DAD
:10413000A85498796F4DA854DB796F4883546F4B1E
:1041400001329B5C002BD7D101226D4B049E1A706B
:104150004B461B78FFF76DF931005B461731162B84
:104160004FD053465C1C0023A41951445C449A0070
:10417000D3180A785B00303AD0B2092800D89B18CF
:104180000131A142F3D1002B3BD03B6805969C4600
:10419000404B00221B78664604935A4943235A4CED
:1041A00001E0202A25D0885C8D1898421CD0049804
:1041B0002B708446DB006344F05CF318A0545878FD
:1041C000524DA8549878524DA854D878514DA854BF
:1041D0001879514DA8545879504DA8549879504D9C
:1041E000A854DB794F4883544F4B01329B5C002B22
:1041F000D7D101224D4B059E1A704B461B78FFF715
:10420000E7F83B6805969C46224B00221B786646E1
:1042100004933C4953233C4D01E0202A25D0885C7F
:104220008C1898421CD0049823708446DB006344A9
:10423000F05CF318A8545878344CA0549878344C57
:10424000A054D878334CA0541879334CA0545879E2
:10425000324CA0549879324CA054DB7931488354C5
:10426000334B01329B5C002BD7D100222F4B059E94
:104270001A704B461B78FFF7ABF83B6804969C46D8
:10428000044B00221B786646039313494D23134DBC
:1042900052E0C046FE240020D73E0000582E0120E8
:1042A00069020000073F00006A020000373F00007B
:1042B0006B020000673F0000973F00006D020000A6
:1042C000C73F00006E020000F73F00006F020000D1
:1042D00027400000AC9F01203F29012034670120C6
:1042E0006467012094670120C4670120F4670120FE
:1042F000246801205468012084680120641202109F
:1043000000250020382901202D6701205D6701204C
:104310008D670120BD670120ED6701201D68012028
:104320004D6801207D6801204012021084050020A4
:1043300048120210192A25D0885C8C1898421CD08B
:10434000039823708446DB006344F05CF318A854A0
:104350005878DC4CA0549878DB4CA054D878DB4CCF
:10436000A0541879DA4CA0545879DA4CA0549879B2
:10437000D94CA054DB79D9488354D94B01329B5C8A
:10438000002BD7D10022D74B049E1A704B461B78C6
:10439000FFF74FF8721E0392FFF71AF8D2490198FF
:1043A0000EF01CFD041E00D161E6019D28001CF0EA
:1043B000C3FB02300EF074FACC4B290018601CF0DD
:1043C000B3FB28000EF04CFDC94B1860C74B1B68AF
:1043D0009C461B78002B49D06025AB46C548F0357C
:1043E0005844AB468146C348C34A90300390C14805
:1043F0001278C0300490BF480092F0300590BD485C
:1044000000222130FF300790BA483E685844834666
:104410002000BA496446089001E0152A25D0885C3E
:104420008D1898421DD000982B708446DB006344A1
:10443000F05CB04DF318A8545878B14DA8544D46CF
:104440009878A854D878039DA8541879049DA85446
:104450005879059DA8549879079DA8545846DB794A
:1044600083540132A35C002BD7D1089C20000EF0AE
:10447000E3FCFCE59C4901980EF0B0FC0790002895
:1044800001D1FFF707F9019D28001CF055FB023010
:104490000EF006FA9B4B290018601CF045FB280023
:1044A0000EF0DEFC984B1860964B1B6803931B784C
:1044B000002B34D03A68954904928F4A9448127878
:1044C00008940592002201E0152A27D08D5C8C18F3
:1044D0009D421ED02370059C049DA446DB006344CE
:1044E000AC46EC5C634484545C788A4DAC549C7854
:1044F000894DAC54DC78894DAC541C79884DAC5452
:104500005C79884DAC549C79874DAC54DB79874CF1
:10451000A354039B01329B5C002BD5D1089C0798C8
:104520000EF08AFC784B1A6880231B019A4201DA4C
:10453000FFF7B2F880235B019A4200DAB7E18023EB
:104540009B019A4200DAADE18023DB019A4200DA56
:10455000A3E180231B029A4200DA99E180235B02E7
:104560009A4200DA8FE180239B029A4200DA85E1C9
:104570008023DB029A4200DA7BE180231B039A420C
:1045800000DA71E1FF216A4B1960FFF785F856499F
:1045900001980EF023FC0790002801D1FFF76CFA78
:1045A000019D28001CF0C8FA02300EF079F9614B29
:1045B000290018601CF0B8FA28000EF051FC5E4B80
:1045C00018605C4B1B6803931B78002B34D03A684F
:1045D0005A490492484A5A4812780894059200228F
:1045E00001E0152A27D08D5C8C189D421ED02370C7
:1045F000059C049DA446DB006344AC46EC5C63442C
:1046000084545C784F4DAC549C784F4DAC54DC785E
:104610004E4DAC541C794E4DAC545C794D4DAC5460
:104620009C794D4DAC54DB794C4CA354039B013227
:104630009B5C002BD5D1089C07980EF0FDFBFFF783
:104640001BFA294901980EF0C9FB0C90002801D1F2
:10465000FFF74AFB019D28001CF06EFA02300EF0B5
:104660001FF93F4B290018601CF05EFA28000EF07D
:10467000F7FB3C4B18603A4B1B6803931B78002BED
:1046800000D19FE038483A6860300590364894463B
:10469000903007903448184AC03008903248127859
:1046A000F0300990304804922130FF300A902E48B3
:1046B00000225130FF300B9020002C4964460D90B1
:1046C00058E0C0466467012094670120C467012058
:1046D000F4670120246801205468012084680120C7
:1046E0006C12021000250020200E02100825002068
:1046F000AC9F0120386D0120FE240020C329012039
:10470000686D01204025002010250020632901202C
:10471000B8680120E8680120186901204869012073
:1047200078690120A8690120D8690120086A012060
:1047300078190020502501204825012083290120D7
:10474000386A0120686A0120986A0120C86A01203D
:10475000F86A0120286B0120586B0120886B01202A
:104760007CD8012074D80120B86B0120A329012036
:10477000152A26D0885C8D1898421DD004982B707D
:104780008446DB006344E05C4B4DE318A854587842
:10479000069DA8549878059DA854D878079DA854DC
:1047A0001879089DA8545879099DA85498790A9DAC
:1047B000A854DB790B988354039B01329B5C002B3C
:1047C000D6D10D9C0C980EF037FBFFF78DFA002226
:1047D000039B5444A05C885401329342FAD13BE4D9
:1047E00060460021039B5044455C55540131994279
:1047F000FAD1FFF76DFA60460021039B5044455CF7
:10480000555401319942FAD1FFF72AF96046002147
:10481000039B5044455C555401319942FAD1FEF74F
:104820002DFF1A00613A052A01D9FEF78AFD573B90
:10483000C918FEF786FD019B02990133884661463F
:1048400094461A00019B00205C469A46235C0B5458
:1048500001308242FAD14346029353466246A34650
:104860008C460193FEF756FD7F21144B1960FEF72D
:1048700013FF3F21114B1960FEF70EFF1F210F4B55
:104880001960FEF709FF0F210C4B1960FEF704FFBA
:1048900007210A4B1960FEF7FFFE0321074B196041
:1048A000FEF7FAFE0121054B1960FEF7F5FE002127
:1048B000024B1960FEF7F0FEB86B0120781900205A
:1048C0009C2370B5194004290AD00C2916D0102950
:1048D00006D01C2902D10022214B1A70012070BD84
:1048E000204B21491B68D200086804329C580028DC
:1048F00001D0002C11DC1D4B1C60EFE71C4B7F2A04
:1049000020DC0021197080231A491B010968994293
:10491000E4DB1000FBF71EFDE0E79A18043A1649A5
:1049200016680EF05BFA051EE5D0310000220EF08D
:104930008BFA2A00210011480EF06EFA28000EF0C2
:104940007BFAD8E701221A7080220D4B12011868F9
:104950000C4B19680C4BC91812F0F0FFBEE7C046AB
:104960008C050020989F01207CD801206424002021
:10497000FB24002010250020200E021048E5002016
:104980005CD8012088050020482500200023334AF8
:1049900070B5137053709370D3701371537193711A
:1049A000D3712F4A2F4C137053709370D3701371BF
:1049B00053719371D37101222B4B00211A70802205
:1049C0002000520212F0B4FFFEF776FB274B186866
:1049D000002803D0264B1D68002D2CDC0022254B1F
:1049E0001A708023244A1B0112689A4202DB0020BD
:1049F000FBF7B0FC214B224A1B6810685C6800285A
:104A000001D0002C04DC1F4B1C60FBF7EDFD70BDDA
:104A10001D491E680EF0E2F9051EF4D03100002297
:104A20000EF012FA2A00210018480EF0F5F92800BD
:104A30000EF002FAE7E714490EF0D0F9061ECDD0C9
:104A4000002200210EF000FA3200290020000EF0B2
:104A5000E3F930000EF0F0F9C0E7C04684D8012039
:104A60006CD80120482500208C0500200825002056
:104A7000AC9F0120FB24002010250020989F0120DE
:104A80007CD8012064240020200E021048E500207C
:104A9000F0B55746DE4645464E46D94BE0B59A46F8
:104AA000D84B8FB09846D84BD84F9B46D84B0093E5
:104AB000D84B1B78002B03D0D74B1B785B0656D501
:104AC0000021D64B1A78D64B02921A70D34B19702C
:104AD0000123D0490B70D34B1E88D34B1878330079
:104AE000002803D08021C9018E423CD3CF490978E8
:104AF0008C46002906D0CE498B4203D9CD4A914637
:104B00004B449BB2CC49CD4CCB5CCD49CD4D0B70C9
:104B1000CD49247809882D780391CC49CC4A09786D
:104B200006940191CB49CC4C097812780491CB4979
:104B300009950978CA4D24782D7805920A020D92BC
:104B4000220207910A9408950C922A020B92741C77
:104B5000B44AA4B21480B04A9B0011784D1C157061
:104B6000C04AD3589F46C04BF3189BB2BEE70123FF
:104B7000BE4A1360A4E7534652461B6804331360D1
:104B800053461A6843461B6800269A4201D305F033
:104B90003FF95B46009A1B681268002B01D105F0B3
:104BA000FBF8002A01D005F0FBF8092B01DC05F029
:104BB0004CF9AF4B1B68022B05DC0123AD4D3A6865
:104BC0002B6053461A605B4600221A6053463A68CF
:104BD0001B6893425AD3A84C22689B1A424612681B
:104BE000934201D205F0E9F8A44B99461B68019362
:104BF000002B01D005F0E1F89E4D01332B60A04B56
:104C00001B68002B03D0002A01D105F067F9FCF7DF
:104C100075FEC0B21F2801D105F06BF9994B0193C5
:104C20001B78002B01D005F06DF9FEF737F9019BD9
:104C30001B78002B01D105F056F9934B9348196866
:104C4000C0239B00C9180BF063FB914A00219148D7
:104C500012F06EFE53461B684A4623600023136021
:104C600001222B608C4B52421A608C4B8C4A12688A
:104C7000002A02D001218B4A116000221A603A6892
:104C8000894B1A60894B1B689B183B60002E00D132
:104C90000EE70FB03CBC90469946A246AB46F0BD2D
:104CA000534652461B6807331360002806D0802302
:104CB000DB019C4202D27E4BF418A4B26346002B67
:104CC00006D05B4B9C4203D95A4B9C466444A4B229
:104CD000594B019D185D57222B1ADB05DB0D19007E
:104CE00091430A00190A11430F2214002A4004407C
:104CF000A24292417F246840A0435D405C426341F0
:104D000049B228409B01524240090B430343120120
:104D10001A4302231A434F4B02361A70414B1E802E
:104D20002EE7534652461B680433136002233B4A66
:104D300013700022374B1A7022E753461B68514606
:104D40001A000A320A606A46127C52B2002A01DA5C
:104D500007F032F8334B03361E8011E753465246B4
:104D60001B68043313600123524A1370524A1370B4
:104D70000022284B1A7003E7534652461B680A3339
:104D800013606B461B7C5BB2002B01DA06F004FC5F
:104D9000244B03361E80F3E6534652461B68063307
:104DA0001360029B002B01D005F02EFA0B98059B97
:104DB0001843254B1880E3E66A465346127C1B686D
:104DC00052B2002A01DA06F063FC52460533136042
:104DD000D6E6534652461B68039D0B331360A81E4C
:104DE000194B80B2E1B21880FCF70EFC681E210A54
:104DF00080B2FCF709FC30230A4A1380C0E6C046A3
:104E0000AC24002090060020CC2400206C2400203C
:104E1000BC240020F42400206AD80120142500209E
:104E200063D8012064D801208C050020840500206F
:104E3000FFFB000000FCFFFF48250020B09F012081
:104E40000425002078D8012060D801206BD80120EB
:104E5000552501201525002058D801200C250020BB
:104E600062D801207412021000C0FFFF4824002005
:104E7000C0240020D024002050240020342400200E
:104E8000C8240020FF24002054D80120D85C012031
:104E9000A0380000B49F01205C24002040240020A2
:104EA0007024002074240020582400208005002055
:104EB00001C0FFFF5AD80120542501205346524615
:104EC0001B6807331360002806D08023DB019C4257
:104ED00002D2D24BF418A4B26346002B06D0D04BBA
:104EE0009C4203D9CF4B9C466444A4B2CE4B0236BD
:104EF0001C5D019B23431C00CC4B22001C705723DC
:104F00009A4363426341CA4952B2095D9B010A4315
:104F10001343C84A1370C84B1E8031E653465246AD
:104F20001B68039C0B331360A01EC44B049980B212
:104F30001880FCF769FB601E019980B2FCF764FBE6
:104F40001EE653461B6851461A000A320A606A463A
:104F5000127C52B2002A01DB06F052FBB64B03363C
:104F60001E800DE6534652461B6804331360002230
:104F7000B34B1A70B34B1A70B34B1A7000E653461A
:104F800052461B680A3313606B461B7C5BB2002BD6
:104F900001DA06F0F7FAB31C9BB2002801D106F043
:104FA00015FE8022D201934202D2A84BF3189BB285
:104FB0006246002A01D107F032FD994A934203D993
:104FC000984A91464B449BB2974AD05680220002A1
:104FD000D201944205D2914BF4186346A4B2002B3F
:104FE00006D08F4B9C4203D98E4B9C466444A4B29E
:104FF0008D4B914A1B5D03431380C1E553465246D6
:105000001B680A331360002801D104F07FFF80225F
:105010000399D2010B00914203D28D4A9146494433
:105020008BB26246002A01D106F0C4FF7C4A93424B
:1050300003D97C4A91464B449BB27B4AD35C7D4A60
:1050400013708022039BD20101339BB2934207D29B
:10505000724A039B914662464B449BB2002A06D09B
:105060006F4A934203D96F4A944663449BB26E4A97
:105070000399D35C6D4A02311370704B19807FE540
:105080006A465346127C1B6852B2002A01DA06F0C7
:105090007EFA524603990B3313604B1C9BB20028D7
:1050A00001D106F0A3FD8022D201934203D25B4AD4
:1050B000914649448BB26246002A01D107F06EFC4A
:1050C000574A934203D9574A91464B449BB2564A9A
:1050D0000399D25680231202DB01994201D306F0D4
:1050E00098FD5B49039B894661464B449BB200296E
:1050F00006D04B498B4203D94A498C4663449BB244
:105100004949CB5C039913434B4A023113804B4B03
:10511000198035E5534652461B68039D0B331360D7
:10512000A81E464B80B2E1B21880FCF76DFA681EEB
:10513000210A80B2FCF768FA28233F4A13801FE552
:10514000534652461B6807331360002806D080235D
:10515000DB019C4202D2314BF418A4B26346002B0F
:1051600006D02F4B9C4203D92E4B9C466444A4B2DC
:1051700001982D4B01001B5D2C4A594011700C0009
:105180005722C31A5842434129489443415C62B2B2
:105190000A439B011343274A02361370264B1E8095
:1051A000EEE453461D68002806D08023DB019C42B4
:1051B00002D21A4BF418A4B26346002B06D0184B47
:1051C0009C4203D9174B99464C44A4B2059A0B9BB9
:1051D000023113430293144BC9B21A5DB31C9CB243
:1051E000154B1C801B4B19701300403BDBB27B2B13
:1051F00001D904F087F9184A9B00D3589F465346BB
:105200001B6851461A000A320A60049A520701D5F7
:1052100006F032FC084B03361E80B1E401C0FFFFEC
:10522000FFFB000000FCFFFF482500206BD8012099
:10523000900500201525002064D8012060D80120A9
:105240005AD8012054250120F424002002C0FFFF79
:1052500000C0FFFF6AD80120741602105346524660
:105260001B680A331360049B5B0701D404F055FFED
:10527000B31C9BB2002801D106F076FD8022D2013A
:10528000934202D2D84BF3189BB26246002A01D156
:1052900007F093FDD54A934203D9D54A91464B4432
:1052A0009BB2D44AD05680220002D201944205D249
:1052B000D14BF4186346A4B2002B06D0CB4B9C42D2
:1052C00003D9CB4B9C466444A4B2CA4BCB4A1B5D6A
:1052D0000343138054E45346049A1B68520701D5D4
:1052E00004F0BAFF52460533136049E45346524670
:1052F0001B68039D0B331360A81EC14B80B2E1B243
:105300001880FCF781F9681E210A80B2FCF77CF94D
:105310002023BA4A138033E4534652461B680433B1
:105320001360029B002B01D005F057F80B98059BEA
:105330001843B24B188023E4534652461B6804338B
:105340001360B04B0A9A1A70AF4B089A1A70AF4BA1
:10535000059A1A70AE4B099A1A70FFF711FC534662
:1053600052461B6807331360002806D08023DB01F8
:105370009C4202D2A04BF418A4B26346002B06D084
:105380009A4B9C4203D99A4B9C466444A4B2994BD5
:1053900002361C5D019B1C409E4B22001C70572353
:1053A0009A4353B262426241920113439A4A125D98
:1053B000134310221343994A1370904B1E80FFF73A
:1053C000DFFB534652461B680B331360029B002BD6
:1053D00001D106F099FB039EB01E80B2012B01D1D2
:1053E00006F05CFF8E4D864B2C8829781880FCF7E0
:1053F0000BF9701E210A80B2FCF706F9FFF7C0FB1B
:1054000053461B6851461A000A320A60049A520732
:1054100001D406F093FB794B03361E80FFF7B0FBF7
:10542000534652461B68039913331360029B002BAB
:1054300001D005F0F0F94D1CADB2002801D106F005
:105440007DFC80222B00D201954203D26A4A91460C
:1054500049448BB26246002A01D107F0E2FC634A5C
:10546000934203D9624A91464B449BB2614AD45657
:105470008023039A2402DB019A4201D306F071FCD7
:10548000684A039B914662464B449BB2002A06D071
:10549000564A934203D9564A944663449BB2554AAE
:1054A0000599D35C03981C43FCF7AEF828000899D3
:1054B000FCF7AAF8564B1C70524BA4B2240A1C707D
:1054C000FFF75EFB534652461B680A331360049B8A
:1054D0005B0701D505F09AF9B31C9BB2002801D1F6
:1054E00006F01CFC8022D201934202D23E4BF318FC
:1054F0009BB26246002A01D107F0A9FB3B4A9342C6
:1055000003D93B4A91464B449BB23A4AD05680223B
:105510000002D201944205D2374BF4186346A4B27C
:10552000002B06D0314B9C4203D9314B9C4664443E
:10553000A4B2304B314A1B5D03431380FFF720FBBD
:10554000534652461B680A331360029B002B01D05E
:1055500005F0C1FC002801D106F0E0FD802203998E
:10556000D2010B00914203D22E4A914649448BB29C
:105570006246002A01D107F095FB1C4A934203D9E9
:105580001B4A91464B449BB21A4AD35C204A137083
:105590008022039BD20101339BB2934207D2164A69
:1055A000039B914662464B449BB2002A06D00F4AA9
:1055B000934203D90E4A944663449BB20D4A039921
:1055C000D35C104A023113700D4B1980FFF7D8FAE3
:1055D0005346049A1B68520701D404F0A3FD5246B7
:1055E00005331360FFF7CCFA02C0FFFFFFFB00009A
:1055F00000FCFFFF4825002001C0FFFF64D8012008
:1056000060D8012062D8012058D8012078D8012024
:10561000552501206BD8012090050020152500207C
:10562000A69F012000C0FFFF534652461B68039D02
:105630000B331360A81EDE4B80B2E1B21880FBF77B
:10564000E3FF681E210A80B2FBF7DEFF1823D94A68
:105650001380FFF795FA534652461B68039D0B33A0
:105660001360A81ED24B80B2E1B21880FBF7CCFFCA
:10567000681E210A80B2FBF7C7FF3823CD4A13808A
:10568000FFF77EFA534652461B680A331360002820
:1056900001D105F011FD8023DB019C4202D2C64BF3
:1056A000F418A4B26346002B01D106F050FDC34BA1
:1056B0009C4201D807F02FFAC14BC24AE3189BB2B3
:1056C000D35CC14A1370B31C9BB28022D2019342B7
:1056D00005D26246BD4BF3189BB2002A06D0B74AEA
:1056E000934203D9B64A944663449BB2B54A033603
:1056F000D35CB74A1370AF4B1E80FFF741FA534695
:1057000052461B6806331360069BAF4A0133DBB277
:105710001370002B01D0FFF733FA079BAC4A01331B
:105720001370FFF72DFA534652461B680D98073346
:105730001360069B01991843FBF766FFFFF720FAF9
:10574000534652461B68049904331360019A530070
:10575000D40923439F4A5BB213703B2291430A0052
:1057600029210B4013439C4A1370FFF709FA534653
:1057700052461B6807331360002806D08023DB01E4
:105780009C4202D28C4BF418A4B26346002B06D084
:105790008A4B9C4203D98A4B9C466444A4B2894BF1
:1057A0008B4A1B5D02361370824B1E80FFF7E8F9AF
:1057B000534652461B680120043313600F22049B9A
:1057C0001840079B1A4051424A41013B1101804A4F
:1057D000DBB21C0013705722944362B27F2B01D1BD
:1057E00006F0DFF85C4263419B0102430A43134326
:1057F00002221343784A1370FFF7C2F95346524608
:105800001B68049904331360079B714A0133DBB2B0
:105810001370012218000A4057218843024352B2F4
:10582000190701D005F09CFB002B01D005F096FB79
:1058300050231A4300231343674A1370FFF7A0F95C
:10584000534652461B68019804331360C201430853
:10585000134359B25F4B049A19703B2301249A43B6
:105860001300282204400A40234313435A4A13706A
:10587000FFF786F9534652461B680433136000282D
:1058800006D08023DB019C4202D24B4BF418A4B219
:105890006346002B06D0494B9C4203D9484B9C469B
:1058A0006444A4B2474B484A1B5D02361370414B17
:1058B0001E80FFF765F9534652461B68424906337E
:1058C0001360069A531E0B70002A01D0FFF758F997
:1058D000079B3F4A013B1370FFF752F9534652466C
:1058E0001B68073313600D9A069B1A43002807D0E4
:1058F0008023DB019A4203D2384B99464A4492B244
:105900006346002B06D02D4B9A4203D92C4B9C4664
:10591000624492B22B4B9B5C2E4A1370FFF730F916
:10592000534652461B680B331360029B002B01D079
:1059300005F01CFB059906980B008446284A634431
:1059400013703B23049A61449A430B0A0F21089871
:10595000079C0840C0182140401852B210210F285F
:1059600000DC0021079D0898AC4660441B181D48C8
:105970009BB20370282018401B0A034313431943AA
:10598000154B1970FFF7FCF8534652461B68114936
:1059900004331360144B1A780A70019A0E491A7076
:1059A000124B1A780A70049A1A70FFF7E9F8C04689
:1059B00060D8012064D8012001C0FFFFFFFB000078
:1059C00000FCFFFF48250020B09F012002C0FFFF20
:1059D0000C2500206BD801201525002000C0FFFFFA
:1059E0005525012062D801204D25012066D80120CF
:1059F000534652461B680120043313600F22049B58
:105A00001840069B1A4051424A41013B1101D54AB8
:105A1000DBB21C0013705722944362B27F2B01D17A
:105A200006F00CF85C4263419B0102430A431343B6
:105A300002221343CC4A1370FFF7A2F85346524692
:105A40001B68049904331360069BC64A0133DBB21A
:105A50001370012218000A4057218843024352B2B2
:105A6000190701D005F063FD002B01D005F05DFDA5
:105A700050231A4300231343BB4A1370FFF780F8E7
:105A8000534652461B68019D049804331360C201BB
:105A90006B08134359B2B54B012419703B2398434B
:105AA000030028222C400A4023431343AE4A1370BC
:105AB000FFF766F8534652461B680433136000280C
:105AC00006D08023DB019C4202D2A94BF418A4B279
:105AD0006346002B06D0A74B9C4203D9A64B9C469D
